{
	"Exam_Guard/ExamContract.sol": {
		"ExamContract": {
			"abi": [
				{
					"inputs": [
						{
							"internalType": "string",
							"name": "_examName",
							"type": "string"
						},
						{
							"internalType": "uint256",
							"name": "_startTime",
							"type": "uint256"
						},
						{
							"internalType": "uint256",
							"name": "_endTime",
							"type": "uint256"
						},
						{
							"internalType": "uint256",
							"name": "_duration",
							"type": "uint256"
						},
						{
							"internalType": "uint256",
							"name": "_totalMarks",
							"type": "uint256"
						},
						{
							"internalType": "uint256",
							"name": "_totalQuestions",
							"type": "uint256"
						}
					],
					"name": "createExam",
					"outputs": [],
					"stateMutability": "nonpayable",
					"type": "function"
				},
				{
					"inputs": [],
					"name": "examCount",
					"outputs": [
						{
							"internalType": "uint256",
							"name": "",
							"type": "uint256"
						}
					],
					"stateMutability": "view",
					"type": "function"
				},
				{
					"inputs": [
						{
							"internalType": "uint256",
							"name": "",
							"type": "uint256"
						}
					],
					"name": "exams",
					"outputs": [
						{
							"internalType": "string",
							"name": "examName",
							"type": "string"
						},
						{
							"internalType": "uint256",
							"name": "startTime",
							"type": "uint256"
						},
						{
							"internalType": "uint256",
							"name": "endTime",
							"type": "uint256"
						},
						{
							"internalType": "uint256",
							"name": "duration",
							"type": "uint256"
						},
						{
							"internalType": "uint256",
							"name": "totalMarks",
							"type": "uint256"
						},
						{
							"internalType": "uint256",
							"name": "totalQuestions",
							"type": "uint256"
						}
					],
					"stateMutability": "view",
					"type": "function"
				},
				{
					"inputs": [
						{
							"internalType": "uint256",
							"name": "examId",
							"type": "uint256"
						}
					],
					"name": "getExamDetails",
					"outputs": [
						{
							"internalType": "string",
							"name": "",
							"type": "string"
						},
						{
							"internalType": "uint256",
							"name": "",
							"type": "uint256"
						},
						{
							"internalType": "uint256",
							"name": "",
							"type": "uint256"
						},
						{
							"internalType": "uint256",
							"name": "",
							"type": "uint256"
						},
						{
							"internalType": "uint256",
							"name": "",
							"type": "uint256"
						},
						{
							"internalType": "uint256",
							"name": "",
							"type": "uint256"
						}
					],
					"stateMutability": "view",
					"type": "function"
				}
			],
			"devdoc": {
				"kind": "dev",
				"methods": {},
				"version": 1
			},
			"evm": {
				"assembly": "    /* \"Exam_Guard/ExamContract.sol\":60:1084  contract ExamContract {... */\n  mstore(0x40, 0x80)\n  callvalue\n  dup1\n  iszero\n  tag_1\n  jumpi\n  0x00\n  dup1\n  revert\ntag_1:\n  pop\n  dataSize(sub_0)\n  dup1\n  dataOffset(sub_0)\n  0x00\n  codecopy\n  0x00\n  return\nstop\n\nsub_0: assembly {\n        /* \"Exam_Guard/ExamContract.sol\":60:1084  contract ExamContract {... */\n      mstore(0x40, 0x80)\n      callvalue\n      dup1\n      iszero\n      tag_1\n      jumpi\n      0x00\n      dup1\n      revert\n    tag_1:\n      pop\n      jumpi(tag_2, lt(calldatasize, 0x04))\n      shr(0xe0, calldataload(0x00))\n      dup1\n      0x04a7e007\n      eq\n      tag_3\n      jumpi\n      dup1\n      0x0dfb1dbf\n      eq\n      tag_4\n      jumpi\n      dup1\n      0x4198cb3f\n      eq\n      tag_5\n      jumpi\n      dup1\n      0xe465e355\n      eq\n      tag_6\n      jumpi\n    tag_2:\n      0x00\n      dup1\n      revert\n        /* \"Exam_Guard/ExamContract.sol\":725:1081  function getExamDetails(uint256 examId)... */\n    tag_3:\n      tag_7\n      0x04\n      dup1\n      calldatasize\n      sub\n      dup2\n      add\n      swap1\n      tag_8\n      swap2\n      swap1\n      tag_9\n      jump\t// in\n    tag_8:\n      tag_10\n      jump\t// in\n    tag_7:\n      mload(0x40)\n      tag_11\n      swap7\n      swap6\n      swap5\n      swap4\n      swap3\n      swap2\n      swap1\n      tag_12\n      jump\t// in\n    tag_11:\n      mload(0x40)\n      dup1\n      swap2\n      sub\n      swap1\n      return\n        /* \"Exam_Guard/ExamContract.sol\":330:354  uint256 public examCount */\n    tag_4:\n      tag_13\n      tag_14\n      jump\t// in\n    tag_13:\n      mload(0x40)\n      tag_15\n      swap2\n      swap1\n      tag_16\n      jump\t// in\n    tag_15:\n      mload(0x40)\n      dup1\n      swap2\n      sub\n      swap1\n      return\n        /* \"Exam_Guard/ExamContract.sol\":286:323  mapping(uint256 => Exam) public exams */\n    tag_5:\n      tag_17\n      0x04\n      dup1\n      calldatasize\n      sub\n      dup2\n      add\n      swap1\n      tag_18\n      swap2\n      swap1\n      tag_9\n      jump\t// in\n    tag_18:\n      tag_19\n      jump\t// in\n    tag_17:\n      mload(0x40)\n      tag_20\n      swap7\n      swap6\n      swap5\n      swap4\n      swap3\n      swap2\n      swap1\n      tag_12\n      jump\t// in\n    tag_20:\n      mload(0x40)\n      dup1\n      swap2\n      sub\n      swap1\n      return\n        /* \"Exam_Guard/ExamContract.sol\":363:717  function createExam(... */\n    tag_6:\n      tag_21\n      0x04\n      dup1\n      calldatasize\n      sub\n      dup2\n      add\n      swap1\n      tag_22\n      swap2\n      swap1\n      tag_23\n      jump\t// in\n    tag_22:\n      tag_24\n      jump\t// in\n    tag_21:\n      stop\n        /* \"Exam_Guard/ExamContract.sol\":725:1081  function getExamDetails(uint256 examId)... */\n    tag_10:\n        /* \"Exam_Guard/ExamContract.sol\":813:826  string memory */\n      0x60\n        /* \"Exam_Guard/ExamContract.sol\":828:835  uint256 */\n      0x00\n        /* \"Exam_Guard/ExamContract.sol\":837:844  uint256 */\n      dup1\n        /* \"Exam_Guard/ExamContract.sol\":846:853  uint256 */\n      0x00\n        /* \"Exam_Guard/ExamContract.sol\":855:862  uint256 */\n      dup1\n        /* \"Exam_Guard/ExamContract.sol\":864:871  uint256 */\n      0x00\n        /* \"Exam_Guard/ExamContract.sol\":906:915  examCount */\n      sload(0x01)\n        /* \"Exam_Guard/ExamContract.sol\":897:903  examId */\n      dup8\n        /* \"Exam_Guard/ExamContract.sol\":897:915  examId < examCount */\n      lt\n        /* \"Exam_Guard/ExamContract.sol\":889:935  require(examId < examCount, \"Invalid Exam ID\") */\n      tag_26\n      jumpi\n      mload(0x40)\n      0x08c379a000000000000000000000000000000000000000000000000000000000\n      dup2\n      mstore\n      0x04\n      add\n      tag_27\n      swap1\n      tag_28\n      jump\t// in\n    tag_27:\n      mload(0x40)\n      dup1\n      swap2\n      sub\n      swap1\n      revert\n    tag_26:\n        /* \"Exam_Guard/ExamContract.sol\":946:959  Exam memory e */\n      0x00\n        /* \"Exam_Guard/ExamContract.sol\":962:967  exams */\n      dup1\n        /* \"Exam_Guard/ExamContract.sol\":962:975  exams[examId] */\n      0x00\n        /* \"Exam_Guard/ExamContract.sol\":968:974  examId */\n      dup10\n        /* \"Exam_Guard/ExamContract.sol\":962:975  exams[examId] */\n      dup2\n      mstore\n      0x20\n      add\n      swap1\n      dup2\n      mstore\n      0x20\n      add\n      0x00\n      keccak256\n        /* \"Exam_Guard/ExamContract.sol\":946:975  Exam memory e = exams[examId] */\n      mload(0x40)\n      dup1\n      0xc0\n      add\n      0x40\n      mstore\n      swap1\n      dup2\n      0x00\n      dup3\n      add\n      dup1\n      sload\n      tag_29\n      swap1\n      tag_30\n      jump\t// in\n    tag_29:\n      dup1\n      0x1f\n      add\n      0x20\n      dup1\n      swap2\n      div\n      mul\n      0x20\n      add\n      mload(0x40)\n      swap1\n      dup2\n      add\n      0x40\n      mstore\n      dup1\n      swap3\n      swap2\n      swap1\n      dup2\n      dup2\n      mstore\n      0x20\n      add\n      dup3\n      dup1\n      sload\n      tag_31\n      swap1\n      tag_30\n      jump\t// in\n    tag_31:\n      dup1\n      iszero\n      tag_32\n      jumpi\n      dup1\n      0x1f\n      lt\n      tag_33\n      jumpi\n      0x0100\n      dup1\n      dup4\n      sload\n      div\n      mul\n      dup4\n      mstore\n      swap2\n      0x20\n      add\n      swap2\n      jump(tag_32)\n    tag_33:\n      dup3\n      add\n      swap2\n      swap1\n      0x00\n      mstore\n      keccak256(0x00, 0x20)\n      swap1\n    tag_34:\n      dup2\n      sload\n      dup2\n      mstore\n      swap1\n      0x01\n      add\n      swap1\n      0x20\n      add\n      dup1\n      dup4\n      gt\n      tag_34\n      jumpi\n      dup3\n      swap1\n      sub\n      0x1f\n      and\n      dup3\n      add\n      swap2\n    tag_32:\n      pop\n      pop\n      pop\n      pop\n      pop\n      dup2\n      mstore\n      0x20\n      add\n      0x01\n      dup3\n      add\n      sload\n      dup2\n      mstore\n      0x20\n      add\n      0x02\n      dup3\n      add\n      sload\n      dup2\n      mstore\n      0x20\n      add\n      0x03\n      dup3\n      add\n      sload\n      dup2\n      mstore\n      0x20\n      add\n      0x04\n      dup3\n      add\n      sload\n      dup2\n      mstore\n      0x20\n      add\n      0x05\n      dup3\n      add\n      sload\n      dup2\n      mstore\n      pop\n      pop\n      swap1\n      pop\n        /* \"Exam_Guard/ExamContract.sol\":994:995  e */\n      dup1\n        /* \"Exam_Guard/ExamContract.sol\":994:1004  e.examName */\n      0x00\n      add\n      mload\n        /* \"Exam_Guard/ExamContract.sol\":1006:1007  e */\n      dup2\n        /* \"Exam_Guard/ExamContract.sol\":1006:1017  e.startTime */\n      0x20\n      add\n      mload\n        /* \"Exam_Guard/ExamContract.sol\":1019:1020  e */\n      dup3\n        /* \"Exam_Guard/ExamContract.sol\":1019:1028  e.endTime */\n      0x40\n      add\n      mload\n        /* \"Exam_Guard/ExamContract.sol\":1030:1031  e */\n      dup4\n        /* \"Exam_Guard/ExamContract.sol\":1030:1040  e.duration */\n      0x60\n      add\n      mload\n        /* \"Exam_Guard/ExamContract.sol\":1042:1043  e */\n      dup5\n        /* \"Exam_Guard/ExamContract.sol\":1042:1054  e.totalMarks */\n      0x80\n      add\n      mload\n        /* \"Exam_Guard/ExamContract.sol\":1056:1057  e */\n      dup6\n        /* \"Exam_Guard/ExamContract.sol\":1056:1072  e.totalQuestions */\n      0xa0\n      add\n      mload\n        /* \"Exam_Guard/ExamContract.sol\":986:1073  return (e.examName, e.startTime, e.endTime, e.duration, e.totalMarks, e.totalQuestions) */\n      swap7\n      pop\n      swap7\n      pop\n      swap7\n      pop\n      swap7\n      pop\n      swap7\n      pop\n      swap7\n      pop\n      pop\n        /* \"Exam_Guard/ExamContract.sol\":725:1081  function getExamDetails(uint256 examId)... */\n      swap2\n      swap4\n      swap6\n      pop\n      swap2\n      swap4\n      swap6\n      jump\t// out\n        /* \"Exam_Guard/ExamContract.sol\":330:354  uint256 public examCount */\n    tag_14:\n      sload(0x01)\n      dup2\n      jump\t// out\n        /* \"Exam_Guard/ExamContract.sol\":286:323  mapping(uint256 => Exam) public exams */\n    tag_19:\n      mstore(0x20, 0x00)\n      dup1\n      0x00\n      mstore\n      keccak256(0x00, 0x40)\n      0x00\n      swap2\n      pop\n      swap1\n      pop\n      dup1\n      0x00\n      add\n      dup1\n      sload\n      tag_35\n      swap1\n      tag_30\n      jump\t// in\n    tag_35:\n      dup1\n      0x1f\n      add\n      0x20\n      dup1\n      swap2\n      div\n      mul\n      0x20\n      add\n      mload(0x40)\n      swap1\n      dup2\n      add\n      0x40\n      mstore\n      dup1\n      swap3\n      swap2\n      swap1\n      dup2\n      dup2\n      mstore\n      0x20\n      add\n      dup3\n      dup1\n      sload\n      tag_36\n      swap1\n      tag_30\n      jump\t// in\n    tag_36:\n      dup1\n      iszero\n      tag_37\n      jumpi\n      dup1\n      0x1f\n      lt\n      tag_38\n      jumpi\n      0x0100\n      dup1\n      dup4\n      sload\n      div\n      mul\n      dup4\n      mstore\n      swap2\n      0x20\n      add\n      swap2\n      jump(tag_37)\n    tag_38:\n      dup3\n      add\n      swap2\n      swap1\n      0x00\n      mstore\n      keccak256(0x00, 0x20)\n      swap1\n    tag_39:\n      dup2\n      sload\n      dup2\n      mstore\n      swap1\n      0x01\n      add\n      swap1\n      0x20\n      add\n      dup1\n      dup4\n      gt\n      tag_39\n      jumpi\n      dup3\n      swap1\n      sub\n      0x1f\n      and\n      dup3\n      add\n      swap2\n    tag_37:\n      pop\n      pop\n      pop\n      pop\n      pop\n      swap1\n      dup1\n      0x01\n      add\n      sload\n      swap1\n      dup1\n      0x02\n      add\n      sload\n      swap1\n      dup1\n      0x03\n      add\n      sload\n      swap1\n      dup1\n      0x04\n      add\n      sload\n      swap1\n      dup1\n      0x05\n      add\n      sload\n      swap1\n      pop\n      dup7\n      jump\t// out\n        /* \"Exam_Guard/ExamContract.sol\":363:717  function createExam(... */\n    tag_24:\n        /* \"Exam_Guard/ExamContract.sol\":609:687  Exam(_examName, _startTime, _endTime, _duration, _totalMarks, _totalQuestions) */\n      mload(0x40)\n      dup1\n      0xc0\n      add\n      0x40\n      mstore\n      dup1\n        /* \"Exam_Guard/ExamContract.sol\":614:623  _examName */\n      dup8\n        /* \"Exam_Guard/ExamContract.sol\":609:687  Exam(_examName, _startTime, _endTime, _duration, _totalMarks, _totalQuestions) */\n      dup2\n      mstore\n      0x20\n      add\n        /* \"Exam_Guard/ExamContract.sol\":625:635  _startTime */\n      dup7\n        /* \"Exam_Guard/ExamContract.sol\":609:687  Exam(_examName, _startTime, _endTime, _duration, _totalMarks, _totalQuestions) */\n      dup2\n      mstore\n      0x20\n      add\n        /* \"Exam_Guard/ExamContract.sol\":637:645  _endTime */\n      dup6\n        /* \"Exam_Guard/ExamContract.sol\":609:687  Exam(_examName, _startTime, _endTime, _duration, _totalMarks, _totalQuestions) */\n      dup2\n      mstore\n      0x20\n      add\n        /* \"Exam_Guard/ExamContract.sol\":647:656  _duration */\n      dup5\n        /* \"Exam_Guard/ExamContract.sol\":609:687  Exam(_examName, _startTime, _endTime, _duration, _totalMarks, _totalQuestions) */\n      dup2\n      mstore\n      0x20\n      add\n        /* \"Exam_Guard/ExamContract.sol\":658:669  _totalMarks */\n      dup4\n        /* \"Exam_Guard/ExamContract.sol\":609:687  Exam(_examName, _startTime, _endTime, _duration, _totalMarks, _totalQuestions) */\n      dup2\n      mstore\n      0x20\n      add\n        /* \"Exam_Guard/ExamContract.sol\":671:686  _totalQuestions */\n      dup3\n        /* \"Exam_Guard/ExamContract.sol\":609:687  Exam(_examName, _startTime, _endTime, _duration, _totalMarks, _totalQuestions) */\n      dup2\n      mstore\n      pop\n        /* \"Exam_Guard/ExamContract.sol\":590:595  exams */\n      0x00\n        /* \"Exam_Guard/ExamContract.sol\":590:606  exams[examCount] */\n      dup1\n        /* \"Exam_Guard/ExamContract.sol\":596:605  examCount */\n      sload(0x01)\n        /* \"Exam_Guard/ExamContract.sol\":590:606  exams[examCount] */\n      dup2\n      mstore\n      0x20\n      add\n      swap1\n      dup2\n      mstore\n      0x20\n      add\n      0x00\n      keccak256\n        /* \"Exam_Guard/ExamContract.sol\":590:687  exams[examCount] = Exam(_examName, _startTime, _endTime, _duration, _totalMarks, _totalQuestions) */\n      0x00\n      dup3\n      add\n      mload\n      dup2\n      0x00\n      add\n      swap1\n      dup2\n      tag_41\n      swap2\n      swap1\n      tag_42\n      jump\t// in\n    tag_41:\n      pop\n      0x20\n      dup3\n      add\n      mload\n      dup2\n      0x01\n      add\n      sstore\n      0x40\n      dup3\n      add\n      mload\n      dup2\n      0x02\n      add\n      sstore\n      0x60\n      dup3\n      add\n      mload\n      dup2\n      0x03\n      add\n      sstore\n      0x80\n      dup3\n      add\n      mload\n      dup2\n      0x04\n      add\n      sstore\n      0xa0\n      dup3\n      add\n      mload\n      dup2\n      0x05\n      add\n      sstore\n      swap1\n      pop\n      pop\n        /* \"Exam_Guard/ExamContract.sol\":698:707  examCount */\n      0x01\n      0x00\n        /* \"Exam_Guard/ExamContract.sol\":698:709  examCount++ */\n      dup2\n      sload\n      dup1\n      swap3\n      swap2\n      swap1\n      tag_43\n      swap1\n      tag_44\n      jump\t// in\n    tag_43:\n      swap2\n      swap1\n      pop\n      sstore\n      pop\n        /* \"Exam_Guard/ExamContract.sol\":363:717  function createExam(... */\n      pop\n      pop\n      pop\n      pop\n      pop\n      pop\n      jump\t// out\n        /* \"#utility.yul\":7:82   */\n    tag_45:\n        /* \"#utility.yul\":40:46   */\n      0x00\n        /* \"#utility.yul\":73:75   */\n      0x40\n        /* \"#utility.yul\":67:76   */\n      mload\n        /* \"#utility.yul\":57:76   */\n      swap1\n      pop\n        /* \"#utility.yul\":7:82   */\n      swap1\n      jump\t// out\n        /* \"#utility.yul\":88:205   */\n    tag_46:\n        /* \"#utility.yul\":197:198   */\n      0x00\n        /* \"#utility.yul\":194:195   */\n      dup1\n        /* \"#utility.yul\":187:199   */\n      revert\n        /* \"#utility.yul\":211:328   */\n    tag_47:\n        /* \"#utility.yul\":320:321   */\n      0x00\n        /* \"#utility.yul\":317:318   */\n      dup1\n        /* \"#utility.yul\":310:322   */\n      revert\n        /* \"#utility.yul\":334:411   */\n    tag_48:\n        /* \"#utility.yul\":371:378   */\n      0x00\n        /* \"#utility.yul\":400:405   */\n      dup2\n        /* \"#utility.yul\":389:405   */\n      swap1\n      pop\n        /* \"#utility.yul\":334:411   */\n      swap2\n      swap1\n      pop\n      jump\t// out\n        /* \"#utility.yul\":417:539   */\n    tag_49:\n        /* \"#utility.yul\":490:514   */\n      tag_91\n        /* \"#utility.yul\":508:513   */\n      dup2\n        /* \"#utility.yul\":490:514   */\n      tag_48\n      jump\t// in\n    tag_91:\n        /* \"#utility.yul\":483:488   */\n      dup2\n        /* \"#utility.yul\":480:515   */\n      eq\n        /* \"#utility.yul\":470:533   */\n      tag_92\n      jumpi\n        /* \"#utility.yul\":529:530   */\n      0x00\n        /* \"#utility.yul\":526:527   */\n      dup1\n        /* \"#utility.yul\":519:531   */\n      revert\n        /* \"#utility.yul\":470:533   */\n    tag_92:\n        /* \"#utility.yul\":417:539   */\n      pop\n      jump\t// out\n        /* \"#utility.yul\":545:684   */\n    tag_50:\n        /* \"#utility.yul\":591:596   */\n      0x00\n        /* \"#utility.yul\":629:635   */\n      dup2\n        /* \"#utility.yul\":616:636   */\n      calldataload\n        /* \"#utility.yul\":607:636   */\n      swap1\n      pop\n        /* \"#utility.yul\":645:678   */\n      tag_94\n        /* \"#utility.yul\":672:677   */\n      dup2\n        /* \"#utility.yul\":645:678   */\n      tag_49\n      jump\t// in\n    tag_94:\n        /* \"#utility.yul\":545:684   */\n      swap3\n      swap2\n      pop\n      pop\n      jump\t// out\n        /* \"#utility.yul\":690:1019   */\n    tag_9:\n        /* \"#utility.yul\":749:755   */\n      0x00\n        /* \"#utility.yul\":798:800   */\n      0x20\n        /* \"#utility.yul\":786:795   */\n      dup3\n        /* \"#utility.yul\":777:784   */\n      dup5\n        /* \"#utility.yul\":773:796   */\n      sub\n        /* \"#utility.yul\":769:801   */\n      slt\n        /* \"#utility.yul\":766:885   */\n      iszero\n      tag_96\n      jumpi\n        /* \"#utility.yul\":804:883   */\n      tag_97\n      tag_46\n      jump\t// in\n    tag_97:\n        /* \"#utility.yul\":766:885   */\n    tag_96:\n        /* \"#utility.yul\":924:925   */\n      0x00\n        /* \"#utility.yul\":949:1002   */\n      tag_98\n        /* \"#utility.yul\":994:1001   */\n      dup5\n        /* \"#utility.yul\":985:991   */\n      dup3\n        /* \"#utility.yul\":974:983   */\n      dup6\n        /* \"#utility.yul\":970:992   */\n      add\n        /* \"#utility.yul\":949:1002   */\n      tag_50\n      jump\t// in\n    tag_98:\n        /* \"#utility.yul\":939:1002   */\n      swap2\n      pop\n        /* \"#utility.yul\":895:1012   */\n      pop\n        /* \"#utility.yul\":690:1019   */\n      swap3\n      swap2\n      pop\n      pop\n      jump\t// out\n        /* \"#utility.yul\":1025:1124   */\n    tag_51:\n        /* \"#utility.yul\":1077:1083   */\n      0x00\n        /* \"#utility.yul\":1111:1116   */\n      dup2\n        /* \"#utility.yul\":1105:1117   */\n      mload\n        /* \"#utility.yul\":1095:1117   */\n      swap1\n      pop\n        /* \"#utility.yul\":1025:1124   */\n      swap2\n      swap1\n      pop\n      jump\t// out\n        /* \"#utility.yul\":1130:1299   */\n    tag_52:\n        /* \"#utility.yul\":1214:1225   */\n      0x00\n        /* \"#utility.yul\":1248:1254   */\n      dup3\n        /* \"#utility.yul\":1243:1246   */\n      dup3\n        /* \"#utility.yul\":1236:1255   */\n      mstore\n        /* \"#utility.yul\":1288:1292   */\n      0x20\n        /* \"#utility.yul\":1283:1286   */\n      dup3\n        /* \"#utility.yul\":1279:1293   */\n      add\n        /* \"#utility.yul\":1264:1293   */\n      swap1\n      pop\n        /* \"#utility.yul\":1130:1299   */\n      swap3\n      swap2\n      pop\n      pop\n      jump\t// out\n        /* \"#utility.yul\":1305:1444   */\n    tag_53:\n        /* \"#utility.yul\":1394:1400   */\n      dup3\n        /* \"#utility.yul\":1389:1392   */\n      dup2\n        /* \"#utility.yul\":1384:1387   */\n      dup4\n        /* \"#utility.yul\":1378:1401   */\n      mcopy\n        /* \"#utility.yul\":1435:1436   */\n      0x00\n        /* \"#utility.yul\":1426:1432   */\n      dup4\n        /* \"#utility.yul\":1421:1424   */\n      dup4\n        /* \"#utility.yul\":1417:1433   */\n      add\n        /* \"#utility.yul\":1410:1437   */\n      mstore\n        /* \"#utility.yul\":1305:1444   */\n      pop\n      pop\n      pop\n      jump\t// out\n        /* \"#utility.yul\":1450:1552   */\n    tag_54:\n        /* \"#utility.yul\":1491:1497   */\n      0x00\n        /* \"#utility.yul\":1542:1544   */\n      0x1f\n        /* \"#utility.yul\":1538:1545   */\n      not\n        /* \"#utility.yul\":1533:1535   */\n      0x1f\n        /* \"#utility.yul\":1526:1531   */\n      dup4\n        /* \"#utility.yul\":1522:1536   */\n      add\n        /* \"#utility.yul\":1518:1546   */\n      and\n        /* \"#utility.yul\":1508:1546   */\n      swap1\n      pop\n        /* \"#utility.yul\":1450:1552   */\n      swap2\n      swap1\n      pop\n      jump\t// out\n        /* \"#utility.yul\":1558:1935   */\n    tag_55:\n        /* \"#utility.yul\":1646:1649   */\n      0x00\n        /* \"#utility.yul\":1674:1713   */\n      tag_104\n        /* \"#utility.yul\":1707:1712   */\n      dup3\n        /* \"#utility.yul\":1674:1713   */\n      tag_51\n      jump\t// in\n    tag_104:\n        /* \"#utility.yul\":1729:1800   */\n      tag_105\n        /* \"#utility.yul\":1793:1799   */\n      dup2\n        /* \"#utility.yul\":1788:1791   */\n      dup6\n        /* \"#utility.yul\":1729:1800   */\n      tag_52\n      jump\t// in\n    tag_105:\n        /* \"#utility.yul\":1722:1800   */\n      swap4\n      pop\n        /* \"#utility.yul\":1809:1874   */\n      tag_106\n        /* \"#utility.yul\":1867:1873   */\n      dup2\n        /* \"#utility.yul\":1862:1865   */\n      dup6\n        /* \"#utility.yul\":1855:1859   */\n      0x20\n        /* \"#utility.yul\":1848:1853   */\n      dup7\n        /* \"#utility.yul\":1844:1860   */\n      add\n        /* \"#utility.yul\":1809:1874   */\n      tag_53\n      jump\t// in\n    tag_106:\n        /* \"#utility.yul\":1899:1928   */\n      tag_107\n        /* \"#utility.yul\":1921:1927   */\n      dup2\n        /* \"#utility.yul\":1899:1928   */\n      tag_54\n      jump\t// in\n    tag_107:\n        /* \"#utility.yul\":1894:1897   */\n      dup5\n        /* \"#utility.yul\":1890:1929   */\n      add\n        /* \"#utility.yul\":1883:1929   */\n      swap2\n      pop\n        /* \"#utility.yul\":1650:1935   */\n      pop\n        /* \"#utility.yul\":1558:1935   */\n      swap3\n      swap2\n      pop\n      pop\n      jump\t// out\n        /* \"#utility.yul\":1941:2059   */\n    tag_56:\n        /* \"#utility.yul\":2028:2052   */\n      tag_109\n        /* \"#utility.yul\":2046:2051   */\n      dup2\n        /* \"#utility.yul\":2028:2052   */\n      tag_48\n      jump\t// in\n    tag_109:\n        /* \"#utility.yul\":2023:2026   */\n      dup3\n        /* \"#utility.yul\":2016:2053   */\n      mstore\n        /* \"#utility.yul\":1941:2059   */\n      pop\n      pop\n      jump\t// out\n        /* \"#utility.yul\":2065:2931   */\n    tag_12:\n        /* \"#utility.yul\":2318:2322   */\n      0x00\n        /* \"#utility.yul\":2356:2359   */\n      0xc0\n        /* \"#utility.yul\":2345:2354   */\n      dup3\n        /* \"#utility.yul\":2341:2360   */\n      add\n        /* \"#utility.yul\":2333:2360   */\n      swap1\n      pop\n        /* \"#utility.yul\":2406:2415   */\n      dup2\n        /* \"#utility.yul\":2400:2404   */\n      dup2\n        /* \"#utility.yul\":2396:2416   */\n      sub\n        /* \"#utility.yul\":2392:2393   */\n      0x00\n        /* \"#utility.yul\":2381:2390   */\n      dup4\n        /* \"#utility.yul\":2377:2394   */\n      add\n        /* \"#utility.yul\":2370:2417   */\n      mstore\n        /* \"#utility.yul\":2434:2512   */\n      tag_111\n        /* \"#utility.yul\":2507:2511   */\n      dup2\n        /* \"#utility.yul\":2498:2504   */\n      dup10\n        /* \"#utility.yul\":2434:2512   */\n      tag_55\n      jump\t// in\n    tag_111:\n        /* \"#utility.yul\":2426:2512   */\n      swap1\n      pop\n        /* \"#utility.yul\":2522:2594   */\n      tag_112\n        /* \"#utility.yul\":2590:2592   */\n      0x20\n        /* \"#utility.yul\":2579:2588   */\n      dup4\n        /* \"#utility.yul\":2575:2593   */\n      add\n        /* \"#utility.yul\":2566:2572   */\n      dup9\n        /* \"#utility.yul\":2522:2594   */\n      tag_56\n      jump\t// in\n    tag_112:\n        /* \"#utility.yul\":2604:2676   */\n      tag_113\n        /* \"#utility.yul\":2672:2674   */\n      0x40\n        /* \"#utility.yul\":2661:2670   */\n      dup4\n        /* \"#utility.yul\":2657:2675   */\n      add\n        /* \"#utility.yul\":2648:2654   */\n      dup8\n        /* \"#utility.yul\":2604:2676   */\n      tag_56\n      jump\t// in\n    tag_113:\n        /* \"#utility.yul\":2686:2758   */\n      tag_114\n        /* \"#utility.yul\":2754:2756   */\n      0x60\n        /* \"#utility.yul\":2743:2752   */\n      dup4\n        /* \"#utility.yul\":2739:2757   */\n      add\n        /* \"#utility.yul\":2730:2736   */\n      dup7\n        /* \"#utility.yul\":2686:2758   */\n      tag_56\n      jump\t// in\n    tag_114:\n        /* \"#utility.yul\":2768:2841   */\n      tag_115\n        /* \"#utility.yul\":2836:2839   */\n      0x80\n        /* \"#utility.yul\":2825:2834   */\n      dup4\n        /* \"#utility.yul\":2821:2840   */\n      add\n        /* \"#utility.yul\":2812:2818   */\n      dup6\n        /* \"#utility.yul\":2768:2841   */\n      tag_56\n      jump\t// in\n    tag_115:\n        /* \"#utility.yul\":2851:2924   */\n      tag_116\n        /* \"#utility.yul\":2919:2922   */\n      0xa0\n        /* \"#utility.yul\":2908:2917   */\n      dup4\n        /* \"#utility.yul\":2904:2923   */\n      add\n        /* \"#utility.yul\":2895:2901   */\n      dup5\n        /* \"#utility.yul\":2851:2924   */\n      tag_56\n      jump\t// in\n    tag_116:\n        /* \"#utility.yul\":2065:2931   */\n      swap8\n      swap7\n      pop\n      pop\n      pop\n      pop\n      pop\n      pop\n      pop\n      jump\t// out\n        /* \"#utility.yul\":2937:3159   */\n    tag_16:\n        /* \"#utility.yul\":3030:3034   */\n      0x00\n        /* \"#utility.yul\":3068:3070   */\n      0x20\n        /* \"#utility.yul\":3057:3066   */\n      dup3\n        /* \"#utility.yul\":3053:3071   */\n      add\n        /* \"#utility.yul\":3045:3071   */\n      swap1\n      pop\n        /* \"#utility.yul\":3081:3152   */\n      tag_118\n        /* \"#utility.yul\":3149:3150   */\n      0x00\n        /* \"#utility.yul\":3138:3147   */\n      dup4\n        /* \"#utility.yul\":3134:3151   */\n      add\n        /* \"#utility.yul\":3125:3131   */\n      dup5\n        /* \"#utility.yul\":3081:3152   */\n      tag_56\n      jump\t// in\n    tag_118:\n        /* \"#utility.yul\":2937:3159   */\n      swap3\n      swap2\n      pop\n      pop\n      jump\t// out\n        /* \"#utility.yul\":3165:3282   */\n    tag_57:\n        /* \"#utility.yul\":3274:3275   */\n      0x00\n        /* \"#utility.yul\":3271:3272   */\n      dup1\n        /* \"#utility.yul\":3264:3276   */\n      revert\n        /* \"#utility.yul\":3288:3405   */\n    tag_58:\n        /* \"#utility.yul\":3397:3398   */\n      0x00\n        /* \"#utility.yul\":3394:3395   */\n      dup1\n        /* \"#utility.yul\":3387:3399   */\n      revert\n        /* \"#utility.yul\":3411:3591   */\n    tag_59:\n        /* \"#utility.yul\":3459:3536   */\n      0x4e487b7100000000000000000000000000000000000000000000000000000000\n        /* \"#utility.yul\":3456:3457   */\n      0x00\n        /* \"#utility.yul\":3449:3537   */\n      mstore\n        /* \"#utility.yul\":3556:3560   */\n      0x41\n        /* \"#utility.yul\":3553:3554   */\n      0x04\n        /* \"#utility.yul\":3546:3561   */\n      mstore\n        /* \"#utility.yul\":3580:3584   */\n      0x24\n        /* \"#utility.yul\":3577:3578   */\n      0x00\n        /* \"#utility.yul\":3570:3585   */\n      revert\n        /* \"#utility.yul\":3597:3878   */\n    tag_60:\n        /* \"#utility.yul\":3680:3707   */\n      tag_123\n        /* \"#utility.yul\":3702:3706   */\n      dup3\n        /* \"#utility.yul\":3680:3707   */\n      tag_54\n      jump\t// in\n    tag_123:\n        /* \"#utility.yul\":3672:3678   */\n      dup2\n        /* \"#utility.yul\":3668:3708   */\n      add\n        /* \"#utility.yul\":3810:3816   */\n      dup2\n        /* \"#utility.yul\":3798:3808   */\n      dup2\n        /* \"#utility.yul\":3795:3817   */\n      lt\n        /* \"#utility.yul\":3774:3792   */\n      0xffffffffffffffff\n        /* \"#utility.yul\":3762:3772   */\n      dup3\n        /* \"#utility.yul\":3759:3793   */\n      gt\n        /* \"#utility.yul\":3756:3818   */\n      or\n        /* \"#utility.yul\":3753:3841   */\n      iszero\n      tag_124\n      jumpi\n        /* \"#utility.yul\":3821:3839   */\n      tag_125\n      tag_59\n      jump\t// in\n    tag_125:\n        /* \"#utility.yul\":3753:3841   */\n    tag_124:\n        /* \"#utility.yul\":3861:3871   */\n      dup1\n        /* \"#utility.yul\":3857:3859   */\n      0x40\n        /* \"#utility.yul\":3850:3872   */\n      mstore\n        /* \"#utility.yul\":3640:3878   */\n      pop\n        /* \"#utility.yul\":3597:3878   */\n      pop\n      pop\n      jump\t// out\n        /* \"#utility.yul\":3884:4013   */\n    tag_61:\n        /* \"#utility.yul\":3918:3924   */\n      0x00\n        /* \"#utility.yul\":3945:3965   */\n      tag_127\n      tag_45\n      jump\t// in\n    tag_127:\n        /* \"#utility.yul\":3935:3965   */\n      swap1\n      pop\n        /* \"#utility.yul\":3974:4007   */\n      tag_128\n        /* \"#utility.yul\":4002:4006   */\n      dup3\n        /* \"#utility.yul\":3994:4000   */\n      dup3\n        /* \"#utility.yul\":3974:4007   */\n      tag_60\n      jump\t// in\n    tag_128:\n        /* \"#utility.yul\":3884:4013   */\n      swap2\n      swap1\n      pop\n      jump\t// out\n        /* \"#utility.yul\":4019:4327   */\n    tag_62:\n        /* \"#utility.yul\":4081:4085   */\n      0x00\n        /* \"#utility.yul\":4171:4189   */\n      0xffffffffffffffff\n        /* \"#utility.yul\":4163:4169   */\n      dup3\n        /* \"#utility.yul\":4160:4190   */\n      gt\n        /* \"#utility.yul\":4157:4213   */\n      iszero\n      tag_130\n      jumpi\n        /* \"#utility.yul\":4193:4211   */\n      tag_131\n      tag_59\n      jump\t// in\n    tag_131:\n        /* \"#utility.yul\":4157:4213   */\n    tag_130:\n        /* \"#utility.yul\":4231:4260   */\n      tag_132\n        /* \"#utility.yul\":4253:4259   */\n      dup3\n        /* \"#utility.yul\":4231:4260   */\n      tag_54\n      jump\t// in\n    tag_132:\n        /* \"#utility.yul\":4223:4260   */\n      swap1\n      pop\n        /* \"#utility.yul\":4315:4319   */\n      0x20\n        /* \"#utility.yul\":4309:4313   */\n      dup2\n        /* \"#utility.yul\":4305:4320   */\n      add\n        /* \"#utility.yul\":4297:4320   */\n      swap1\n      pop\n        /* \"#utility.yul\":4019:4327   */\n      swap2\n      swap1\n      pop\n      jump\t// out\n        /* \"#utility.yul\":4333:4481   */\n    tag_63:\n        /* \"#utility.yul\":4431:4437   */\n      dup3\n        /* \"#utility.yul\":4426:4429   */\n      dup2\n        /* \"#utility.yul\":4421:4424   */\n      dup4\n        /* \"#utility.yul\":4408:4438   */\n      calldatacopy\n        /* \"#utility.yul\":4472:4473   */\n      0x00\n        /* \"#utility.yul\":4463:4469   */\n      dup4\n        /* \"#utility.yul\":4458:4461   */\n      dup4\n        /* \"#utility.yul\":4454:4470   */\n      add\n        /* \"#utility.yul\":4447:4474   */\n      mstore\n        /* \"#utility.yul\":4333:4481   */\n      pop\n      pop\n      pop\n      jump\t// out\n        /* \"#utility.yul\":4487:4912   */\n    tag_64:\n        /* \"#utility.yul\":4565:4570   */\n      0x00\n        /* \"#utility.yul\":4590:4656   */\n      tag_135\n        /* \"#utility.yul\":4606:4655   */\n      tag_136\n        /* \"#utility.yul\":4648:4654   */\n      dup5\n        /* \"#utility.yul\":4606:4655   */\n      tag_62\n      jump\t// in\n    tag_136:\n        /* \"#utility.yul\":4590:4656   */\n      tag_61\n      jump\t// in\n    tag_135:\n        /* \"#utility.yul\":4581:4656   */\n      swap1\n      pop\n        /* \"#utility.yul\":4679:4685   */\n      dup3\n        /* \"#utility.yul\":4672:4677   */\n      dup2\n        /* \"#utility.yul\":4665:4686   */\n      mstore\n        /* \"#utility.yul\":4717:4721   */\n      0x20\n        /* \"#utility.yul\":4710:4715   */\n      dup2\n        /* \"#utility.yul\":4706:4722   */\n      add\n        /* \"#utility.yul\":4755:4758   */\n      dup5\n        /* \"#utility.yul\":4746:4752   */\n      dup5\n        /* \"#utility.yul\":4741:4744   */\n      dup5\n        /* \"#utility.yul\":4737:4753   */\n      add\n        /* \"#utility.yul\":4734:4759   */\n      gt\n        /* \"#utility.yul\":4731:4843   */\n      iszero\n      tag_137\n      jumpi\n        /* \"#utility.yul\":4762:4841   */\n      tag_138\n      tag_58\n      jump\t// in\n    tag_138:\n        /* \"#utility.yul\":4731:4843   */\n    tag_137:\n        /* \"#utility.yul\":4852:4906   */\n      tag_139\n        /* \"#utility.yul\":4899:4905   */\n      dup5\n        /* \"#utility.yul\":4894:4897   */\n      dup3\n        /* \"#utility.yul\":4889:4892   */\n      dup6\n        /* \"#utility.yul\":4852:4906   */\n      tag_63\n      jump\t// in\n    tag_139:\n        /* \"#utility.yul\":4571:4912   */\n      pop\n        /* \"#utility.yul\":4487:4912   */\n      swap4\n      swap3\n      pop\n      pop\n      pop\n      jump\t// out\n        /* \"#utility.yul\":4932:5272   */\n    tag_65:\n        /* \"#utility.yul\":4988:4993   */\n      0x00\n        /* \"#utility.yul\":5037:5040   */\n      dup3\n        /* \"#utility.yul\":5030:5034   */\n      0x1f\n        /* \"#utility.yul\":5022:5028   */\n      dup4\n        /* \"#utility.yul\":5018:5035   */\n      add\n        /* \"#utility.yul\":5014:5041   */\n      slt\n        /* \"#utility.yul\":5004:5126   */\n      tag_141\n      jumpi\n        /* \"#utility.yul\":5045:5124   */\n      tag_142\n      tag_57\n      jump\t// in\n    tag_142:\n        /* \"#utility.yul\":5004:5126   */\n    tag_141:\n        /* \"#utility.yul\":5162:5168   */\n      dup2\n        /* \"#utility.yul\":5149:5169   */\n      calldataload\n        /* \"#utility.yul\":5187:5266   */\n      tag_143\n        /* \"#utility.yul\":5262:5265   */\n      dup5\n        /* \"#utility.yul\":5254:5260   */\n      dup3\n        /* \"#utility.yul\":5247:5251   */\n      0x20\n        /* \"#utility.yul\":5239:5245   */\n      dup7\n        /* \"#utility.yul\":5235:5252   */\n      add\n        /* \"#utility.yul\":5187:5266   */\n      tag_64\n      jump\t// in\n    tag_143:\n        /* \"#utility.yul\":5178:5266   */\n      swap2\n      pop\n        /* \"#utility.yul\":4994:5272   */\n      pop\n        /* \"#utility.yul\":4932:5272   */\n      swap3\n      swap2\n      pop\n      pop\n      jump\t// out\n        /* \"#utility.yul\":5278:6515   */\n    tag_23:\n        /* \"#utility.yul\":5392:5398   */\n      0x00\n        /* \"#utility.yul\":5400:5406   */\n      dup1\n        /* \"#utility.yul\":5408:5414   */\n      0x00\n        /* \"#utility.yul\":5416:5422   */\n      dup1\n        /* \"#utility.yul\":5424:5430   */\n      0x00\n        /* \"#utility.yul\":5432:5438   */\n      dup1\n        /* \"#utility.yul\":5481:5484   */\n      0xc0\n        /* \"#utility.yul\":5469:5478   */\n      dup8\n        /* \"#utility.yul\":5460:5467   */\n      dup10\n        /* \"#utility.yul\":5456:5479   */\n      sub\n        /* \"#utility.yul\":5452:5485   */\n      slt\n        /* \"#utility.yul\":5449:5569   */\n      iszero\n      tag_145\n      jumpi\n        /* \"#utility.yul\":5488:5567   */\n      tag_146\n      tag_46\n      jump\t// in\n    tag_146:\n        /* \"#utility.yul\":5449:5569   */\n    tag_145:\n        /* \"#utility.yul\":5636:5637   */\n      0x00\n        /* \"#utility.yul\":5625:5634   */\n      dup8\n        /* \"#utility.yul\":5621:5638   */\n      add\n        /* \"#utility.yul\":5608:5639   */\n      calldataload\n        /* \"#utility.yul\":5666:5684   */\n      0xffffffffffffffff\n        /* \"#utility.yul\":5658:5664   */\n      dup2\n        /* \"#utility.yul\":5655:5685   */\n      gt\n        /* \"#utility.yul\":5652:5769   */\n      iszero\n      tag_147\n      jumpi\n        /* \"#utility.yul\":5688:5767   */\n      tag_148\n      tag_47\n      jump\t// in\n    tag_148:\n        /* \"#utility.yul\":5652:5769   */\n    tag_147:\n        /* \"#utility.yul\":5793:5856   */\n      tag_149\n        /* \"#utility.yul\":5848:5855   */\n      dup10\n        /* \"#utility.yul\":5839:5845   */\n      dup3\n        /* \"#utility.yul\":5828:5837   */\n      dup11\n        /* \"#utility.yul\":5824:5846   */\n      add\n        /* \"#utility.yul\":5793:5856   */\n      tag_65\n      jump\t// in\n    tag_149:\n        /* \"#utility.yul\":5783:5856   */\n      swap7\n      pop\n        /* \"#utility.yul\":5579:5866   */\n      pop\n        /* \"#utility.yul\":5905:5907   */\n      0x20\n        /* \"#utility.yul\":5931:5984   */\n      tag_150\n        /* \"#utility.yul\":5976:5983   */\n      dup10\n        /* \"#utility.yul\":5967:5973   */\n      dup3\n        /* \"#utility.yul\":5956:5965   */\n      dup11\n        /* \"#utility.yul\":5952:5974   */\n      add\n        /* \"#utility.yul\":5931:5984   */\n      tag_50\n      jump\t// in\n    tag_150:\n        /* \"#utility.yul\":5921:5984   */\n      swap6\n      pop\n        /* \"#utility.yul\":5876:5994   */\n      pop\n        /* \"#utility.yul\":6033:6035   */\n      0x40\n        /* \"#utility.yul\":6059:6112   */\n      tag_151\n        /* \"#utility.yul\":6104:6111   */\n      dup10\n        /* \"#utility.yul\":6095:6101   */\n      dup3\n        /* \"#utility.yul\":6084:6093   */\n      dup11\n        /* \"#utility.yul\":6080:6102   */\n      add\n        /* \"#utility.yul\":6059:6112   */\n      tag_50\n      jump\t// in\n    tag_151:\n        /* \"#utility.yul\":6049:6112   */\n      swap5\n      pop\n        /* \"#utility.yul\":6004:6122   */\n      pop\n        /* \"#utility.yul\":6161:6163   */\n      0x60\n        /* \"#utility.yul\":6187:6240   */\n      tag_152\n        /* \"#utility.yul\":6232:6239   */\n      dup10\n        /* \"#utility.yul\":6223:6229   */\n      dup3\n        /* \"#utility.yul\":6212:6221   */\n      dup11\n        /* \"#utility.yul\":6208:6230   */\n      add\n        /* \"#utility.yul\":6187:6240   */\n      tag_50\n      jump\t// in\n    tag_152:\n        /* \"#utility.yul\":6177:6240   */\n      swap4\n      pop\n        /* \"#utility.yul\":6132:6250   */\n      pop\n        /* \"#utility.yul\":6289:6292   */\n      0x80\n        /* \"#utility.yul\":6316:6369   */\n      tag_153\n        /* \"#utility.yul\":6361:6368   */\n      dup10\n        /* \"#utility.yul\":6352:6358   */\n      dup3\n        /* \"#utility.yul\":6341:6350   */\n      dup11\n        /* \"#utility.yul\":6337:6359   */\n      add\n        /* \"#utility.yul\":6316:6369   */\n      tag_50\n      jump\t// in\n    tag_153:\n        /* \"#utility.yul\":6306:6369   */\n      swap3\n      pop\n        /* \"#utility.yul\":6260:6379   */\n      pop\n        /* \"#utility.yul\":6418:6421   */\n      0xa0\n        /* \"#utility.yul\":6445:6498   */\n      tag_154\n        /* \"#utility.yul\":6490:6497   */\n      dup10\n        /* \"#utility.yul\":6481:6487   */\n      dup3\n        /* \"#utility.yul\":6470:6479   */\n      dup11\n        /* \"#utility.yul\":6466:6488   */\n      add\n        /* \"#utility.yul\":6445:6498   */\n      tag_50\n      jump\t// in\n    tag_154:\n        /* \"#utility.yul\":6435:6498   */\n      swap2\n      pop\n        /* \"#utility.yul\":6389:6508   */\n      pop\n        /* \"#utility.yul\":5278:6515   */\n      swap3\n      swap6\n      pop\n      swap3\n      swap6\n      pop\n      swap3\n      swap6\n      jump\t// out\n        /* \"#utility.yul\":6521:6686   */\n    tag_66:\n        /* \"#utility.yul\":6661:6678   */\n      0x496e76616c6964204578616d2049440000000000000000000000000000000000\n        /* \"#utility.yul\":6657:6658   */\n      0x00\n        /* \"#utility.yul\":6649:6655   */\n      dup3\n        /* \"#utility.yul\":6645:6659   */\n      add\n        /* \"#utility.yul\":6638:6679   */\n      mstore\n        /* \"#utility.yul\":6521:6686   */\n      pop\n      jump\t// out\n        /* \"#utility.yul\":6692:7058   */\n    tag_67:\n        /* \"#utility.yul\":6834:6837   */\n      0x00\n        /* \"#utility.yul\":6855:6922   */\n      tag_157\n        /* \"#utility.yul\":6919:6921   */\n      0x0f\n        /* \"#utility.yul\":6914:6917   */\n      dup4\n        /* \"#utility.yul\":6855:6922   */\n      tag_52\n      jump\t// in\n    tag_157:\n        /* \"#utility.yul\":6848:6922   */\n      swap2\n      pop\n        /* \"#utility.yul\":6931:7024   */\n      tag_158\n        /* \"#utility.yul\":7020:7023   */\n      dup3\n        /* \"#utility.yul\":6931:7024   */\n      tag_66\n      jump\t// in\n    tag_158:\n        /* \"#utility.yul\":7049:7051   */\n      0x20\n        /* \"#utility.yul\":7044:7047   */\n      dup3\n        /* \"#utility.yul\":7040:7052   */\n      add\n        /* \"#utility.yul\":7033:7052   */\n      swap1\n      pop\n        /* \"#utility.yul\":6692:7058   */\n      swap2\n      swap1\n      pop\n      jump\t// out\n        /* \"#utility.yul\":7064:7483   */\n    tag_28:\n        /* \"#utility.yul\":7230:7234   */\n      0x00\n        /* \"#utility.yul\":7268:7270   */\n      0x20\n        /* \"#utility.yul\":7257:7266   */\n      dup3\n        /* \"#utility.yul\":7253:7271   */\n      add\n        /* \"#utility.yul\":7245:7271   */\n      swap1\n      pop\n        /* \"#utility.yul\":7317:7326   */\n      dup2\n        /* \"#utility.yul\":7311:7315   */\n      dup2\n        /* \"#utility.yul\":7307:7327   */\n      sub\n        /* \"#utility.yul\":7303:7304   */\n      0x00\n        /* \"#utility.yul\":7292:7301   */\n      dup4\n        /* \"#utility.yul\":7288:7305   */\n      add\n        /* \"#utility.yul\":7281:7328   */\n      mstore\n        /* \"#utility.yul\":7345:7476   */\n      tag_160\n        /* \"#utility.yul\":7471:7475   */\n      dup2\n        /* \"#utility.yul\":7345:7476   */\n      tag_67\n      jump\t// in\n    tag_160:\n        /* \"#utility.yul\":7337:7476   */\n      swap1\n      pop\n        /* \"#utility.yul\":7064:7483   */\n      swap2\n      swap1\n      pop\n      jump\t// out\n        /* \"#utility.yul\":7489:7669   */\n    tag_68:\n        /* \"#utility.yul\":7537:7614   */\n      0x4e487b7100000000000000000000000000000000000000000000000000000000\n        /* \"#utility.yul\":7534:7535   */\n      0x00\n        /* \"#utility.yul\":7527:7615   */\n      mstore\n        /* \"#utility.yul\":7634:7638   */\n      0x22\n        /* \"#utility.yul\":7631:7632   */\n      0x04\n        /* \"#utility.yul\":7624:7639   */\n      mstore\n        /* \"#utility.yul\":7658:7662   */\n      0x24\n        /* \"#utility.yul\":7655:7656   */\n      0x00\n        /* \"#utility.yul\":7648:7663   */\n      revert\n        /* \"#utility.yul\":7675:7995   */\n    tag_30:\n        /* \"#utility.yul\":7719:7725   */\n      0x00\n        /* \"#utility.yul\":7756:7757   */\n      0x02\n        /* \"#utility.yul\":7750:7754   */\n      dup3\n        /* \"#utility.yul\":7746:7758   */\n      div\n        /* \"#utility.yul\":7736:7758   */\n      swap1\n      pop\n        /* \"#utility.yul\":7803:7804   */\n      0x01\n        /* \"#utility.yul\":7797:7801   */\n      dup3\n        /* \"#utility.yul\":7793:7805   */\n      and\n        /* \"#utility.yul\":7824:7842   */\n      dup1\n        /* \"#utility.yul\":7814:7895   */\n      tag_163\n      jumpi\n        /* \"#utility.yul\":7880:7884   */\n      0x7f\n        /* \"#utility.yul\":7872:7878   */\n      dup3\n        /* \"#utility.yul\":7868:7885   */\n      and\n        /* \"#utility.yul\":7858:7885   */\n      swap2\n      pop\n        /* \"#utility.yul\":7814:7895   */\n    tag_163:\n        /* \"#utility.yul\":7942:7944   */\n      0x20\n        /* \"#utility.yul\":7934:7940   */\n      dup3\n        /* \"#utility.yul\":7931:7945   */\n      lt\n        /* \"#utility.yul\":7911:7929   */\n      dup2\n        /* \"#utility.yul\":7908:7946   */\n      sub\n        /* \"#utility.yul\":7905:7989   */\n      tag_164\n      jumpi\n        /* \"#utility.yul\":7961:7979   */\n      tag_165\n      tag_68\n      jump\t// in\n    tag_165:\n        /* \"#utility.yul\":7905:7989   */\n    tag_164:\n        /* \"#utility.yul\":7726:7995   */\n      pop\n        /* \"#utility.yul\":7675:7995   */\n      swap2\n      swap1\n      pop\n      jump\t// out\n        /* \"#utility.yul\":8001:8142   */\n    tag_69:\n        /* \"#utility.yul\":8050:8054   */\n      0x00\n        /* \"#utility.yul\":8073:8076   */\n      dup2\n        /* \"#utility.yul\":8065:8076   */\n      swap1\n      pop\n        /* \"#utility.yul\":8096:8099   */\n      dup2\n        /* \"#utility.yul\":8093:8094   */\n      0x00\n        /* \"#utility.yul\":8086:8100   */\n      mstore\n        /* \"#utility.yul\":8130:8134   */\n      0x20\n        /* \"#utility.yul\":8127:8128   */\n      0x00\n        /* \"#utility.yul\":8117:8135   */\n      keccak256\n        /* \"#utility.yul\":8109:8135   */\n      swap1\n      pop\n        /* \"#utility.yul\":8001:8142   */\n      swap2\n      swap1\n      pop\n      jump\t// out\n        /* \"#utility.yul\":8148:8241   */\n    tag_70:\n        /* \"#utility.yul\":8185:8191   */\n      0x00\n        /* \"#utility.yul\":8232:8234   */\n      0x20\n        /* \"#utility.yul\":8227:8229   */\n      0x1f\n        /* \"#utility.yul\":8220:8225   */\n      dup4\n        /* \"#utility.yul\":8216:8230   */\n      add\n        /* \"#utility.yul\":8212:8235   */\n      div\n        /* \"#utility.yul\":8202:8235   */\n      swap1\n      pop\n        /* \"#utility.yul\":8148:8241   */\n      swap2\n      swap1\n      pop\n      jump\t// out\n        /* \"#utility.yul\":8247:8354   */\n    tag_71:\n        /* \"#utility.yul\":8291:8299   */\n      0x00\n        /* \"#utility.yul\":8341:8346   */\n      dup3\n        /* \"#utility.yul\":8335:8339   */\n      dup3\n        /* \"#utility.yul\":8331:8347   */\n      shl\n        /* \"#utility.yul\":8310:8347   */\n      swap1\n      pop\n        /* \"#utility.yul\":8247:8354   */\n      swap3\n      swap2\n      pop\n      pop\n      jump\t// out\n        /* \"#utility.yul\":8360:8753   */\n    tag_72:\n        /* \"#utility.yul\":8429:8435   */\n      0x00\n        /* \"#utility.yul\":8479:8480   */\n      0x08\n        /* \"#utility.yul\":8467:8477   */\n      dup4\n        /* \"#utility.yul\":8463:8481   */\n      mul\n        /* \"#utility.yul\":8502:8599   */\n      tag_170\n        /* \"#utility.yul\":8532:8598   */\n      0xffffffffffffffffffffffffffffffffffffffffffffffffffffffffffffffff\n        /* \"#utility.yul\":8521:8530   */\n      dup3\n        /* \"#utility.yul\":8502:8599   */\n      tag_71\n      jump\t// in\n    tag_170:\n        /* \"#utility.yul\":8620:8659   */\n      tag_171\n        /* \"#utility.yul\":8650:8658   */\n      dup7\n        /* \"#utility.yul\":8639:8648   */\n      dup4\n        /* \"#utility.yul\":8620:8659   */\n      tag_71\n      jump\t// in\n    tag_171:\n        /* \"#utility.yul\":8608:8659   */\n      swap6\n      pop\n        /* \"#utility.yul\":8692:8696   */\n      dup1\n        /* \"#utility.yul\":8688:8697   */\n      not\n        /* \"#utility.yul\":8681:8686   */\n      dup5\n        /* \"#utility.yul\":8677:8698   */\n      and\n        /* \"#utility.yul\":8668:8698   */\n      swap4\n      pop\n        /* \"#utility.yul\":8741:8745   */\n      dup1\n        /* \"#utility.yul\":8731:8739   */\n      dup7\n        /* \"#utility.yul\":8727:8746   */\n      and\n        /* \"#utility.yul\":8720:8725   */\n      dup5\n        /* \"#utility.yul\":8717:8747   */\n      or\n        /* \"#utility.yul\":8707:8747   */\n      swap3\n      pop\n        /* \"#utility.yul\":8436:8753   */\n      pop\n      pop\n        /* \"#utility.yul\":8360:8753   */\n      swap4\n      swap3\n      pop\n      pop\n      pop\n      jump\t// out\n        /* \"#utility.yul\":8759:8819   */\n    tag_73:\n        /* \"#utility.yul\":8787:8790   */\n      0x00\n        /* \"#utility.yul\":8808:8813   */\n      dup2\n        /* \"#utility.yul\":8801:8813   */\n      swap1\n      pop\n        /* \"#utility.yul\":8759:8819   */\n      swap2\n      swap1\n      pop\n      jump\t// out\n        /* \"#utility.yul\":8825:8967   */\n    tag_74:\n        /* \"#utility.yul\":8875:8884   */\n      0x00\n        /* \"#utility.yul\":8908:8961   */\n      tag_174\n        /* \"#utility.yul\":8926:8960   */\n      tag_175\n        /* \"#utility.yul\":8935:8959   */\n      tag_176\n        /* \"#utility.yul\":8953:8958   */\n      dup5\n        /* \"#utility.yul\":8935:8959   */\n      tag_48\n      jump\t// in\n    tag_176:\n        /* \"#utility.yul\":8926:8960   */\n      tag_73\n      jump\t// in\n    tag_175:\n        /* \"#utility.yul\":8908:8961   */\n      tag_48\n      jump\t// in\n    tag_174:\n        /* \"#utility.yul\":8895:8961   */\n      swap1\n      pop\n        /* \"#utility.yul\":8825:8967   */\n      swap2\n      swap1\n      pop\n      jump\t// out\n        /* \"#utility.yul\":8973:9048   */\n    tag_75:\n        /* \"#utility.yul\":9016:9019   */\n      0x00\n        /* \"#utility.yul\":9037:9042   */\n      dup2\n        /* \"#utility.yul\":9030:9042   */\n      swap1\n      pop\n        /* \"#utility.yul\":8973:9048   */\n      swap2\n      swap1\n      pop\n      jump\t// out\n        /* \"#utility.yul\":9054:9323   */\n    tag_76:\n        /* \"#utility.yul\":9164:9203   */\n      tag_179\n        /* \"#utility.yul\":9195:9202   */\n      dup4\n        /* \"#utility.yul\":9164:9203   */\n      tag_74\n      jump\t// in\n    tag_179:\n        /* \"#utility.yul\":9225:9316   */\n      tag_180\n        /* \"#utility.yul\":9274:9315   */\n      tag_181\n        /* \"#utility.yul\":9298:9314   */\n      dup3\n        /* \"#utility.yul\":9274:9315   */\n      tag_75\n      jump\t// in\n    tag_181:\n        /* \"#utility.yul\":9266:9272   */\n      dup5\n        /* \"#utility.yul\":9259:9263   */\n      dup5\n        /* \"#utility.yul\":9253:9264   */\n      sload\n        /* \"#utility.yul\":9225:9316   */\n      tag_72\n      jump\t// in\n    tag_180:\n        /* \"#utility.yul\":9219:9223   */\n      dup3\n        /* \"#utility.yul\":9212:9317   */\n      sstore\n        /* \"#utility.yul\":9130:9323   */\n      pop\n        /* \"#utility.yul\":9054:9323   */\n      pop\n      pop\n      pop\n      jump\t// out\n        /* \"#utility.yul\":9329:9402   */\n    tag_77:\n        /* \"#utility.yul\":9374:9377   */\n      0x00\n        /* \"#utility.yul\":9329:9402   */\n      swap1\n      jump\t// out\n        /* \"#utility.yul\":9408:9597   */\n    tag_78:\n        /* \"#utility.yul\":9485:9517   */\n      tag_184\n      tag_77\n      jump\t// in\n    tag_184:\n        /* \"#utility.yul\":9526:9591   */\n      tag_185\n        /* \"#utility.yul\":9584:9590   */\n      dup2\n        /* \"#utility.yul\":9576:9582   */\n      dup5\n        /* \"#utility.yul\":9570:9574   */\n      dup5\n        /* \"#utility.yul\":9526:9591   */\n      tag_76\n      jump\t// in\n    tag_185:\n        /* \"#utility.yul\":9461:9597   */\n      pop\n        /* \"#utility.yul\":9408:9597   */\n      pop\n      pop\n      jump\t// out\n        /* \"#utility.yul\":9603:9789   */\n    tag_79:\n        /* \"#utility.yul\":9663:9783   */\n    tag_187:\n        /* \"#utility.yul\":9680:9683   */\n      dup2\n        /* \"#utility.yul\":9673:9678   */\n      dup2\n        /* \"#utility.yul\":9670:9684   */\n      lt\n        /* \"#utility.yul\":9663:9783   */\n      iszero\n      tag_189\n      jumpi\n        /* \"#utility.yul\":9734:9773   */\n      tag_190\n        /* \"#utility.yul\":9771:9772   */\n      0x00\n        /* \"#utility.yul\":9764:9769   */\n      dup3\n        /* \"#utility.yul\":9734:9773   */\n      tag_78\n      jump\t// in\n    tag_190:\n        /* \"#utility.yul\":9707:9708   */\n      0x01\n        /* \"#utility.yul\":9700:9705   */\n      dup2\n        /* \"#utility.yul\":9696:9709   */\n      add\n        /* \"#utility.yul\":9687:9709   */\n      swap1\n      pop\n        /* \"#utility.yul\":9663:9783   */\n      jump(tag_187)\n    tag_189:\n        /* \"#utility.yul\":9603:9789   */\n      pop\n      pop\n      jump\t// out\n        /* \"#utility.yul\":9795:10338   */\n    tag_80:\n        /* \"#utility.yul\":9896:9898   */\n      0x1f\n        /* \"#utility.yul\":9891:9894   */\n      dup3\n        /* \"#utility.yul\":9888:9899   */\n      gt\n        /* \"#utility.yul\":9885:10331   */\n      iszero\n      tag_192\n      jumpi\n        /* \"#utility.yul\":9930:9968   */\n      tag_193\n        /* \"#utility.yul\":9962:9967   */\n      dup2\n        /* \"#utility.yul\":9930:9968   */\n      tag_69\n      jump\t// in\n    tag_193:\n        /* \"#utility.yul\":10014:10043   */\n      tag_194\n        /* \"#utility.yul\":10032:10042   */\n      dup5\n        /* \"#utility.yul\":10014:10043   */\n      tag_70\n      jump\t// in\n    tag_194:\n        /* \"#utility.yul\":10004:10012   */\n      dup2\n        /* \"#utility.yul\":10000:10044   */\n      add\n        /* \"#utility.yul\":10197:10199   */\n      0x20\n        /* \"#utility.yul\":10185:10195   */\n      dup6\n        /* \"#utility.yul\":10182:10200   */\n      lt\n        /* \"#utility.yul\":10179:10228   */\n      iszero\n      tag_195\n      jumpi\n        /* \"#utility.yul\":10218:10226   */\n      dup2\n        /* \"#utility.yul\":10203:10226   */\n      swap1\n      pop\n        /* \"#utility.yul\":10179:10228   */\n    tag_195:\n        /* \"#utility.yul\":10241:10321   */\n      tag_196\n        /* \"#utility.yul\":10297:10319   */\n      tag_197\n        /* \"#utility.yul\":10315:10318   */\n      dup6\n        /* \"#utility.yul\":10297:10319   */\n      tag_70\n      jump\t// in\n    tag_197:\n        /* \"#utility.yul\":10287:10295   */\n      dup4\n        /* \"#utility.yul\":10283:10320   */\n      add\n        /* \"#utility.yul\":10270:10281   */\n      dup3\n        /* \"#utility.yul\":10241:10321   */\n      tag_79\n      jump\t// in\n    tag_196:\n        /* \"#utility.yul\":9900:10331   */\n      pop\n      pop\n        /* \"#utility.yul\":9885:10331   */\n    tag_192:\n        /* \"#utility.yul\":9795:10338   */\n      pop\n      pop\n      pop\n      jump\t// out\n        /* \"#utility.yul\":10344:10461   */\n    tag_81:\n        /* \"#utility.yul\":10398:10406   */\n      0x00\n        /* \"#utility.yul\":10448:10453   */\n      dup3\n        /* \"#utility.yul\":10442:10446   */\n      dup3\n        /* \"#utility.yul\":10438:10454   */\n      shr\n        /* \"#utility.yul\":10417:10454   */\n      swap1\n      pop\n        /* \"#utility.yul\":10344:10461   */\n      swap3\n      swap2\n      pop\n      pop\n      jump\t// out\n        /* \"#utility.yul\":10467:10636   */\n    tag_82:\n        /* \"#utility.yul\":10511:10517   */\n      0x00\n        /* \"#utility.yul\":10544:10595   */\n      tag_200\n        /* \"#utility.yul\":10592:10593   */\n      0x00\n        /* \"#utility.yul\":10588:10594   */\n      not\n        /* \"#utility.yul\":10580:10585   */\n      dup5\n        /* \"#utility.yul\":10577:10578   */\n      0x08\n        /* \"#utility.yul\":10573:10586   */\n      mul\n        /* \"#utility.yul\":10544:10595   */\n      tag_81\n      jump\t// in\n    tag_200:\n        /* \"#utility.yul\":10540:10596   */\n      not\n        /* \"#utility.yul\":10625:10629   */\n      dup1\n        /* \"#utility.yul\":10619:10623   */\n      dup4\n        /* \"#utility.yul\":10615:10630   */\n      and\n        /* \"#utility.yul\":10605:10630   */\n      swap2\n      pop\n        /* \"#utility.yul\":10518:10636   */\n      pop\n        /* \"#utility.yul\":10467:10636   */\n      swap3\n      swap2\n      pop\n      pop\n      jump\t// out\n        /* \"#utility.yul\":10641:10936   */\n    tag_83:\n        /* \"#utility.yul\":10717:10721   */\n      0x00\n        /* \"#utility.yul\":10863:10892   */\n      tag_202\n        /* \"#utility.yul\":10888:10891   */\n      dup4\n        /* \"#utility.yul\":10882:10886   */\n      dup4\n        /* \"#utility.yul\":10863:10892   */\n      tag_82\n      jump\t// in\n    tag_202:\n        /* \"#utility.yul\":10855:10892   */\n      swap2\n      pop\n        /* \"#utility.yul\":10925:10928   */\n      dup3\n        /* \"#utility.yul\":10922:10923   */\n      0x02\n        /* \"#utility.yul\":10918:10929   */\n      mul\n        /* \"#utility.yul\":10912:10916   */\n      dup3\n        /* \"#utility.yul\":10909:10930   */\n      or\n        /* \"#utility.yul\":10901:10930   */\n      swap1\n      pop\n        /* \"#utility.yul\":10641:10936   */\n      swap3\n      swap2\n      pop\n      pop\n      jump\t// out\n        /* \"#utility.yul\":10941:12336   */\n    tag_42:\n        /* \"#utility.yul\":11058:11095   */\n      tag_204\n        /* \"#utility.yul\":11091:11094   */\n      dup3\n        /* \"#utility.yul\":11058:11095   */\n      tag_51\n      jump\t// in\n    tag_204:\n        /* \"#utility.yul\":11160:11178   */\n      0xffffffffffffffff\n        /* \"#utility.yul\":11152:11158   */\n      dup2\n        /* \"#utility.yul\":11149:11179   */\n      gt\n        /* \"#utility.yul\":11146:11202   */\n      iszero\n      tag_205\n      jumpi\n        /* \"#utility.yul\":11182:11200   */\n      tag_206\n      tag_59\n      jump\t// in\n    tag_206:\n        /* \"#utility.yul\":11146:11202   */\n    tag_205:\n        /* \"#utility.yul\":11226:11264   */\n      tag_207\n        /* \"#utility.yul\":11258:11262   */\n      dup3\n        /* \"#utility.yul\":11252:11263   */\n      sload\n        /* \"#utility.yul\":11226:11264   */\n      tag_30\n      jump\t// in\n    tag_207:\n        /* \"#utility.yul\":11311:11378   */\n      tag_208\n        /* \"#utility.yul\":11371:11377   */\n      dup3\n        /* \"#utility.yul\":11363:11369   */\n      dup3\n        /* \"#utility.yul\":11357:11361   */\n      dup6\n        /* \"#utility.yul\":11311:11378   */\n      tag_80\n      jump\t// in\n    tag_208:\n        /* \"#utility.yul\":11405:11406   */\n      0x00\n        /* \"#utility.yul\":11429:11433   */\n      0x20\n        /* \"#utility.yul\":11416:11433   */\n      swap1\n      pop\n        /* \"#utility.yul\":11461:11463   */\n      0x1f\n        /* \"#utility.yul\":11453:11459   */\n      dup4\n        /* \"#utility.yul\":11450:11464   */\n      gt\n        /* \"#utility.yul\":11478:11479   */\n      0x01\n        /* \"#utility.yul\":11473:12091   */\n      dup2\n      eq\n      tag_210\n      jumpi\n        /* \"#utility.yul\":12135:12136   */\n      0x00\n        /* \"#utility.yul\":12152:12158   */\n      dup5\n        /* \"#utility.yul\":12149:12226   */\n      iszero\n      tag_211\n      jumpi\n        /* \"#utility.yul\":12201:12210   */\n      dup3\n        /* \"#utility.yul\":12196:12199   */\n      dup8\n        /* \"#utility.yul\":12192:12211   */\n      add\n        /* \"#utility.yul\":12186:12212   */\n      mload\n        /* \"#utility.yul\":12177:12212   */\n      swap1\n      pop\n        /* \"#utility.yul\":12149:12226   */\n    tag_211:\n        /* \"#utility.yul\":12252:12319   */\n      tag_212\n        /* \"#utility.yul\":12312:12318   */\n      dup6\n        /* \"#utility.yul\":12305:12310   */\n      dup3\n        /* \"#utility.yul\":12252:12319   */\n      tag_83\n      jump\t// in\n    tag_212:\n        /* \"#utility.yul\":12246:12250   */\n      dup7\n        /* \"#utility.yul\":12239:12320   */\n      sstore\n        /* \"#utility.yul\":12108:12330   */\n      pop\n        /* \"#utility.yul\":11443:12330   */\n      jump(tag_209)\n        /* \"#utility.yul\":11473:12091   */\n    tag_210:\n        /* \"#utility.yul\":11525:11529   */\n      0x1f\n        /* \"#utility.yul\":11521:11530   */\n      not\n        /* \"#utility.yul\":11513:11519   */\n      dup5\n        /* \"#utility.yul\":11509:11531   */\n      and\n        /* \"#utility.yul\":11559:11596   */\n      tag_213\n        /* \"#utility.yul\":11591:11595   */\n      dup7\n        /* \"#utility.yul\":11559:11596   */\n      tag_69\n      jump\t// in\n    tag_213:\n        /* \"#utility.yul\":11618:11619   */\n      0x00\n        /* \"#utility.yul\":11632:11840   */\n    tag_214:\n        /* \"#utility.yul\":11646:11653   */\n      dup3\n        /* \"#utility.yul\":11643:11644   */\n      dup2\n        /* \"#utility.yul\":11640:11654   */\n      lt\n        /* \"#utility.yul\":11632:11840   */\n      iszero\n      tag_216\n      jumpi\n        /* \"#utility.yul\":11725:11734   */\n      dup5\n        /* \"#utility.yul\":11720:11723   */\n      dup10\n        /* \"#utility.yul\":11716:11735   */\n      add\n        /* \"#utility.yul\":11710:11736   */\n      mload\n        /* \"#utility.yul\":11702:11708   */\n      dup3\n        /* \"#utility.yul\":11695:11737   */\n      sstore\n        /* \"#utility.yul\":11776:11777   */\n      0x01\n        /* \"#utility.yul\":11768:11774   */\n      dup3\n        /* \"#utility.yul\":11764:11778   */\n      add\n        /* \"#utility.yul\":11754:11778   */\n      swap2\n      pop\n        /* \"#utility.yul\":11823:11825   */\n      0x20\n        /* \"#utility.yul\":11812:11821   */\n      dup6\n        /* \"#utility.yul\":11808:11826   */\n      add\n        /* \"#utility.yul\":11795:11826   */\n      swap5\n      pop\n        /* \"#utility.yul\":11669:11673   */\n      0x20\n        /* \"#utility.yul\":11666:11667   */\n      dup2\n        /* \"#utility.yul\":11662:11674   */\n      add\n        /* \"#utility.yul\":11657:11674   */\n      swap1\n      pop\n        /* \"#utility.yul\":11632:11840   */\n      jump(tag_214)\n    tag_216:\n        /* \"#utility.yul\":11868:11874   */\n      dup7\n        /* \"#utility.yul\":11859:11866   */\n      dup4\n        /* \"#utility.yul\":11856:11875   */\n      lt\n        /* \"#utility.yul\":11853:12032   */\n      iszero\n      tag_217\n      jumpi\n        /* \"#utility.yul\":11926:11935   */\n      dup5\n        /* \"#utility.yul\":11921:11924   */\n      dup10\n        /* \"#utility.yul\":11917:11936   */\n      add\n        /* \"#utility.yul\":11911:11937   */\n      mload\n        /* \"#utility.yul\":11969:12017   */\n      tag_218\n        /* \"#utility.yul\":12011:12015   */\n      0x1f\n        /* \"#utility.yul\":12003:12009   */\n      dup10\n        /* \"#utility.yul\":11999:12016   */\n      and\n        /* \"#utility.yul\":11988:11997   */\n      dup3\n        /* \"#utility.yul\":11969:12017   */\n      tag_82\n      jump\t// in\n    tag_218:\n        /* \"#utility.yul\":11961:11967   */\n      dup4\n        /* \"#utility.yul\":11954:12018   */\n      sstore\n        /* \"#utility.yul\":11876:12032   */\n      pop\n        /* \"#utility.yul\":11853:12032   */\n    tag_217:\n        /* \"#utility.yul\":12078:12079   */\n      0x01\n        /* \"#utility.yul\":12074:12075   */\n      0x02\n        /* \"#utility.yul\":12066:12072   */\n      dup9\n        /* \"#utility.yul\":12062:12076   */\n      mul\n        /* \"#utility.yul\":12058:12080   */\n      add\n        /* \"#utility.yul\":12052:12056   */\n      dup9\n        /* \"#utility.yul\":12045:12081   */\n      sstore\n        /* \"#utility.yul\":11480:12091   */\n      pop\n      pop\n      pop\n        /* \"#utility.yul\":11443:12330   */\n    tag_209:\n      pop\n        /* \"#utility.yul\":11033:12336   */\n      pop\n      pop\n      pop\n        /* \"#utility.yul\":10941:12336   */\n      pop\n      pop\n      jump\t// out\n        /* \"#utility.yul\":12342:12522   */\n    tag_84:\n        /* \"#utility.yul\":12390:12467   */\n      0x4e487b7100000000000000000000000000000000000000000000000000000000\n        /* \"#utility.yul\":12387:12388   */\n      0x00\n        /* \"#utility.yul\":12380:12468   */\n      mstore\n        /* \"#utility.yul\":12487:12491   */\n      0x11\n        /* \"#utility.yul\":12484:12485   */\n      0x04\n        /* \"#utility.yul\":12477:12492   */\n      mstore\n        /* \"#utility.yul\":12511:12515   */\n      0x24\n        /* \"#utility.yul\":12508:12509   */\n      0x00\n        /* \"#utility.yul\":12501:12516   */\n      revert\n        /* \"#utility.yul\":12528:12761   */\n    tag_44:\n        /* \"#utility.yul\":12567:12570   */\n      0x00\n        /* \"#utility.yul\":12590:12614   */\n      tag_221\n        /* \"#utility.yul\":12608:12613   */\n      dup3\n        /* \"#utility.yul\":12590:12614   */\n      tag_48\n      jump\t// in\n    tag_221:\n        /* \"#utility.yul\":12581:12614   */\n      swap2\n      pop\n        /* \"#utility.yul\":12636:12702   */\n      0xffffffffffffffffffffffffffffffffffffffffffffffffffffffffffffffff\n        /* \"#utility.yul\":12629:12634   */\n      dup3\n        /* \"#utility.yul\":12626:12703   */\n      sub\n        /* \"#utility.yul\":12623:12726   */\n      tag_222\n      jumpi\n        /* \"#utility.yul\":12706:12724   */\n      tag_223\n      tag_84\n      jump\t// in\n    tag_223:\n        /* \"#utility.yul\":12623:12726   */\n    tag_222:\n        /* \"#utility.yul\":12753:12754   */\n      0x01\n        /* \"#utility.yul\":12746:12751   */\n      dup3\n        /* \"#utility.yul\":12742:12755   */\n      add\n        /* \"#utility.yul\":12735:12755   */\n      swap1\n      pop\n        /* \"#utility.yul\":12528:12761   */\n      swap2\n      swap1\n      pop\n      jump\t// out\n\n    auxdata: 0xa26469706673582212209175b93a7faa754a50fb0040fe1e68215d510058f8c1fb9dcbd1ee12e66b0a9064736f6c634300081a0033\n}\n",
				"bytecode": {
					"linkReferences": {},
					"object": "6080604052348015600e575f80fd5b50610ad28061001c5f395ff3fe608060405234801561000f575f80fd5b506004361061004a575f3560e01c806304a7e0071461004e5780630dfb1dbf146100835780634198cb3f146100a1578063e465e355146100d6575b5f80fd5b610068600480360381019061006391906103fd565b6100f2565b60405161007a969594939291906104a7565b60405180910390f35b61008b61024f565b604051610098919061050d565b60405180910390f35b6100bb60048036038101906100b691906103fd565b610255565b6040516100cd969594939291906104a7565b60405180910390f35b6100f060048036038101906100eb9190610652565b610312565b005b60605f805f805f600154871061013d576040517f08c379a000000000000000000000000000000000000000000000000000000000815260040161013490610741565b60405180910390fd5b5f805f8981526020019081526020015f206040518060c00160405290815f820180546101689061078c565b80601f01602080910402602001604051908101604052809291908181526020018280546101949061078c565b80156101df5780601f106101b6576101008083540402835291602001916101df565b820191905f5260205f20905b8154815290600101906020018083116101c257829003601f168201915b50505050508152602001600182015481526020016002820154815260200160038201548152602001600482015481526020016005820154815250509050805f015181602001518260400151836060015184608001518560a001519650965096509650965096505091939550919395565b60015481565b5f602052805f5260405f205f91509050805f0180546102739061078c565b80601f016020809104026020016040519081016040528092919081815260200182805461029f9061078c565b80156102ea5780601f106102c1576101008083540402835291602001916102ea565b820191905f5260205f20905b8154815290600101906020018083116102cd57829003601f168201915b5050505050908060010154908060020154908060030154908060040154908060050154905086565b6040518060c00160405280878152602001868152602001858152602001848152602001838152602001828152505f8060015481526020019081526020015f205f820151815f0190816103649190610959565b506020820151816001015560408201518160020155606082015181600301556080820151816004015560a0820151816005015590505060015f8154809291906103ac90610a55565b9190505550505050505050565b5f604051905090565b5f80fd5b5f80fd5b5f819050919050565b6103dc816103ca565b81146103e6575f80fd5b50565b5f813590506103f7816103d3565b92915050565b5f60208284031215610412576104116103c2565b5b5f61041f848285016103e9565b91505092915050565b5f81519050919050565b5f82825260208201905092915050565b8281835e5f83830152505050565b5f601f19601f8301169050919050565b5f61046a82610428565b6104748185610432565b9350610484818560208601610442565b61048d81610450565b840191505092915050565b6104a1816103ca565b82525050565b5f60c0820190508181035f8301526104bf8189610460565b90506104ce6020830188610498565b6104db6040830187610498565b6104e86060830186610498565b6104f56080830185610498565b61050260a0830184610498565b979650505050505050565b5f6020820190506105205f830184610498565b92915050565b5f80fd5b5f80fd5b7f4e487b71000000000000000000000000000000000000000000000000000000005f52604160045260245ffd5b61056482610450565b810181811067ffffffffffffffff821117156105835761058261052e565b5b80604052505050565b5f6105956103b9565b90506105a1828261055b565b919050565b5f67ffffffffffffffff8211156105c0576105bf61052e565b5b6105c982610450565b9050602081019050919050565b828183375f83830152505050565b5f6105f66105f1846105a6565b61058c565b9050828152602081018484840111156106125761061161052a565b5b61061d8482856105d6565b509392505050565b5f82601f83011261063957610638610526565b5b81356106498482602086016105e4565b91505092915050565b5f805f805f8060c0878903121561066c5761066b6103c2565b5b5f87013567ffffffffffffffff811115610689576106886103c6565b5b61069589828a01610625565b96505060206106a689828a016103e9565b95505060406106b789828a016103e9565b94505060606106c889828a016103e9565b93505060806106d989828a016103e9565b92505060a06106ea89828a016103e9565b9150509295509295509295565b7f496e76616c6964204578616d20494400000000000000000000000000000000005f82015250565b5f61072b600f83610432565b9150610736826106f7565b602082019050919050565b5f6020820190508181035f8301526107588161071f565b9050919050565b7f4e487b71000000000000000000000000000000000000000000000000000000005f52602260045260245ffd5b5f60028204905060018216806107a357607f821691505b6020821081036107b6576107b561075f565b5b50919050565b5f819050815f5260205f209050919050565b5f6020601f8301049050919050565b5f82821b905092915050565b5f600883026108187fffffffffffffffffffffffffffffffffffffffffffffffffffffffffffffffff826107dd565b61082286836107dd565b95508019841693508086168417925050509392505050565b5f819050919050565b5f61085d610858610853846103ca565b61083a565b6103ca565b9050919050565b5f819050919050565b61087683610843565b61088a61088282610864565b8484546107e9565b825550505050565b5f90565b61089e610892565b6108a981848461086d565b505050565b5b818110156108cc576108c15f82610896565b6001810190506108af565b5050565b601f821115610911576108e2816107bc565b6108eb846107ce565b810160208510156108fa578190505b61090e610906856107ce565b8301826108ae565b50505b505050565b5f82821c905092915050565b5f6109315f1984600802610916565b1980831691505092915050565b5f6109498383610922565b9150826002028217905092915050565b61096282610428565b67ffffffffffffffff81111561097b5761097a61052e565b5b610985825461078c565b6109908282856108d0565b5f60209050601f8311600181146109c1575f84156109af578287015190505b6109b9858261093e565b865550610a20565b601f1984166109cf866107bc565b5f5b828110156109f6578489015182556001820191506020850194506020810190506109d1565b86831015610a135784890151610a0f601f891682610922565b8355505b6001600288020188555050505b505050505050565b7f4e487b71000000000000000000000000000000000000000000000000000000005f52601160045260245ffd5b5f610a5f826103ca565b91507fffffffffffffffffffffffffffffffffffffffffffffffffffffffffffffffff8203610a9157610a90610a28565b5b60018201905091905056fea26469706673582212209175b93a7faa754a50fb0040fe1e68215d510058f8c1fb9dcbd1ee12e66b0a9064736f6c634300081a0033",
					"opcodes": "PUSH1 0x80 PUSH1 0x40 MSTORE CALLVALUE DUP1 ISZERO PUSH1 0xE JUMPI PUSH0 DUP1 REVERT JUMPDEST POP PUSH2 0xAD2 DUP1 PUSH2 0x1C PUSH0 CODECOPY PUSH0 RETURN INVALID PUSH1 0x80 PUSH1 0x40 MSTORE CALLVALUE DUP1 ISZERO PUSH2 0xF JUMPI PUSH0 DUP1 REVERT JUMPDEST POP PUSH1 0x4 CALLDATASIZE LT PUSH2 0x4A JUMPI PUSH0 CALLDATALOAD PUSH1 0xE0 SHR DUP1 PUSH4 0x4A7E007 EQ PUSH2 0x4E JUMPI DUP1 PUSH4 0xDFB1DBF EQ PUSH2 0x83 JUMPI DUP1 PUSH4 0x4198CB3F EQ PUSH2 0xA1 JUMPI DUP1 PUSH4 0xE465E355 EQ PUSH2 0xD6 JUMPI JUMPDEST PUSH0 DUP1 REVERT JUMPDEST PUSH2 0x68 PUSH1 0x4 DUP1 CALLDATASIZE SUB DUP2 ADD SWAP1 PUSH2 0x63 SWAP2 SWAP1 PUSH2 0x3FD JUMP JUMPDEST PUSH2 0xF2 JUMP JUMPDEST PUSH1 0x40 MLOAD PUSH2 0x7A SWAP7 SWAP6 SWAP5 SWAP4 SWAP3 SWAP2 SWAP1 PUSH2 0x4A7 JUMP JUMPDEST PUSH1 0x40 MLOAD DUP1 SWAP2 SUB SWAP1 RETURN JUMPDEST PUSH2 0x8B PUSH2 0x24F JUMP JUMPDEST PUSH1 0x40 MLOAD PUSH2 0x98 SWAP2 SWAP1 PUSH2 0x50D JUMP JUMPDEST PUSH1 0x40 MLOAD DUP1 SWAP2 SUB SWAP1 RETURN JUMPDEST PUSH2 0xBB PUSH1 0x4 DUP1 CALLDATASIZE SUB DUP2 ADD SWAP1 PUSH2 0xB6 SWAP2 SWAP1 PUSH2 0x3FD JUMP JUMPDEST PUSH2 0x255 JUMP JUMPDEST PUSH1 0x40 MLOAD PUSH2 0xCD SWAP7 SWAP6 SWAP5 SWAP4 SWAP3 SWAP2 SWAP1 PUSH2 0x4A7 JUMP JUMPDEST PUSH1 0x40 MLOAD DUP1 SWAP2 SUB SWAP1 RETURN JUMPDEST PUSH2 0xF0 PUSH1 0x4 DUP1 CALLDATASIZE SUB DUP2 ADD SWAP1 PUSH2 0xEB SWAP2 SWAP1 PUSH2 0x652 JUMP JUMPDEST PUSH2 0x312 JUMP JUMPDEST STOP JUMPDEST PUSH1 0x60 PUSH0 DUP1 PUSH0 DUP1 PUSH0 PUSH1 0x1 SLOAD DUP8 LT PUSH2 0x13D JUMPI PUSH1 0x40 MLOAD PUSH32 0x8C379A000000000000000000000000000000000000000000000000000000000 DUP2 MSTORE PUSH1 0x4 ADD PUSH2 0x134 SWAP1 PUSH2 0x741 JUMP JUMPDEST PUSH1 0x40 MLOAD DUP1 SWAP2 SUB SWAP1 REVERT JUMPDEST PUSH0 DUP1 PUSH0 DUP10 DUP2 MSTORE PUSH1 0x20 ADD SWAP1 DUP2 MSTORE PUSH1 0x20 ADD PUSH0 KECCAK256 PUSH1 0x40 MLOAD DUP1 PUSH1 0xC0 ADD PUSH1 0x40 MSTORE SWAP1 DUP2 PUSH0 DUP3 ADD DUP1 SLOAD PUSH2 0x168 SWAP1 PUSH2 0x78C JUMP JUMPDEST DUP1 PUSH1 0x1F ADD PUSH1 0x20 DUP1 SWAP2 DIV MUL PUSH1 0x20 ADD PUSH1 0x40 MLOAD SWAP1 DUP2 ADD PUSH1 0x40 MSTORE DUP1 SWAP3 SWAP2 SWAP1 DUP2 DUP2 MSTORE PUSH1 0x20 ADD DUP3 DUP1 SLOAD PUSH2 0x194 SWAP1 PUSH2 0x78C JUMP JUMPDEST DUP1 ISZERO PUSH2 0x1DF JUMPI DUP1 PUSH1 0x1F LT PUSH2 0x1B6 JUMPI PUSH2 0x100 DUP1 DUP4 SLOAD DIV MUL DUP4 MSTORE SWAP2 PUSH1 0x20 ADD SWAP2 PUSH2 0x1DF JUMP JUMPDEST DUP3 ADD SWAP2 SWAP1 PUSH0 MSTORE PUSH1 0x20 PUSH0 KECCAK256 SWAP1 JUMPDEST DUP2 SLOAD DUP2 MSTORE SWAP1 PUSH1 0x1 ADD SWAP1 PUSH1 0x20 ADD DUP1 DUP4 GT PUSH2 0x1C2 JUMPI DUP3 SWAP1 SUB PUSH1 0x1F AND DUP3 ADD SWAP2 JUMPDEST POP POP POP POP POP DUP2 MSTORE PUSH1 0x20 ADD PUSH1 0x1 DUP3 ADD SLOAD DUP2 MSTORE PUSH1 0x20 ADD PUSH1 0x2 DUP3 ADD SLOAD DUP2 MSTORE PUSH1 0x20 ADD PUSH1 0x3 DUP3 ADD SLOAD DUP2 MSTORE PUSH1 0x20 ADD PUSH1 0x4 DUP3 ADD SLOAD DUP2 MSTORE PUSH1 0x20 ADD PUSH1 0x5 DUP3 ADD SLOAD DUP2 MSTORE POP POP SWAP1 POP DUP1 PUSH0 ADD MLOAD DUP2 PUSH1 0x20 ADD MLOAD DUP3 PUSH1 0x40 ADD MLOAD DUP4 PUSH1 0x60 ADD MLOAD DUP5 PUSH1 0x80 ADD MLOAD DUP6 PUSH1 0xA0 ADD MLOAD SWAP7 POP SWAP7 POP SWAP7 POP SWAP7 POP SWAP7 POP SWAP7 POP POP SWAP2 SWAP4 SWAP6 POP SWAP2 SWAP4 SWAP6 JUMP JUMPDEST PUSH1 0x1 SLOAD DUP2 JUMP JUMPDEST PUSH0 PUSH1 0x20 MSTORE DUP1 PUSH0 MSTORE PUSH1 0x40 PUSH0 KECCAK256 PUSH0 SWAP2 POP SWAP1 POP DUP1 PUSH0 ADD DUP1 SLOAD PUSH2 0x273 SWAP1 PUSH2 0x78C JUMP JUMPDEST DUP1 PUSH1 0x1F ADD PUSH1 0x20 DUP1 SWAP2 DIV MUL PUSH1 0x20 ADD PUSH1 0x40 MLOAD SWAP1 DUP2 ADD PUSH1 0x40 MSTORE DUP1 SWAP3 SWAP2 SWAP1 DUP2 DUP2 MSTORE PUSH1 0x20 ADD DUP3 DUP1 SLOAD PUSH2 0x29F SWAP1 PUSH2 0x78C JUMP JUMPDEST DUP1 ISZERO PUSH2 0x2EA JUMPI DUP1 PUSH1 0x1F LT PUSH2 0x2C1 JUMPI PUSH2 0x100 DUP1 DUP4 SLOAD DIV MUL DUP4 MSTORE SWAP2 PUSH1 0x20 ADD SWAP2 PUSH2 0x2EA JUMP JUMPDEST DUP3 ADD SWAP2 SWAP1 PUSH0 MSTORE PUSH1 0x20 PUSH0 KECCAK256 SWAP1 JUMPDEST DUP2 SLOAD DUP2 MSTORE SWAP1 PUSH1 0x1 ADD SWAP1 PUSH1 0x20 ADD DUP1 DUP4 GT PUSH2 0x2CD JUMPI DUP3 SWAP1 SUB PUSH1 0x1F AND DUP3 ADD SWAP2 JUMPDEST POP POP POP POP POP SWAP1 DUP1 PUSH1 0x1 ADD SLOAD SWAP1 DUP1 PUSH1 0x2 ADD SLOAD SWAP1 DUP1 PUSH1 0x3 ADD SLOAD SWAP1 DUP1 PUSH1 0x4 ADD SLOAD SWAP1 DUP1 PUSH1 0x5 ADD SLOAD SWAP1 POP DUP7 JUMP JUMPDEST PUSH1 0x40 MLOAD DUP1 PUSH1 0xC0 ADD PUSH1 0x40 MSTORE DUP1 DUP8 DUP2 MSTORE PUSH1 0x20 ADD DUP7 DUP2 MSTORE PUSH1 0x20 ADD DUP6 DUP2 MSTORE PUSH1 0x20 ADD DUP5 DUP2 MSTORE PUSH1 0x20 ADD DUP4 DUP2 MSTORE PUSH1 0x20 ADD DUP3 DUP2 MSTORE POP PUSH0 DUP1 PUSH1 0x1 SLOAD DUP2 MSTORE PUSH1 0x20 ADD SWAP1 DUP2 MSTORE PUSH1 0x20 ADD PUSH0 KECCAK256 PUSH0 DUP3 ADD MLOAD DUP2 PUSH0 ADD SWAP1 DUP2 PUSH2 0x364 SWAP2 SWAP1 PUSH2 0x959 JUMP JUMPDEST POP PUSH1 0x20 DUP3 ADD MLOAD DUP2 PUSH1 0x1 ADD SSTORE PUSH1 0x40 DUP3 ADD MLOAD DUP2 PUSH1 0x2 ADD SSTORE PUSH1 0x60 DUP3 ADD MLOAD DUP2 PUSH1 0x3 ADD SSTORE PUSH1 0x80 DUP3 ADD MLOAD DUP2 PUSH1 0x4 ADD SSTORE PUSH1 0xA0 DUP3 ADD MLOAD DUP2 PUSH1 0x5 ADD SSTORE SWAP1 POP POP PUSH1 0x1 PUSH0 DUP2 SLOAD DUP1 SWAP3 SWAP2 SWAP1 PUSH2 0x3AC SWAP1 PUSH2 0xA55 JUMP JUMPDEST SWAP2 SWAP1 POP SSTORE POP POP POP POP POP POP POP JUMP JUMPDEST PUSH0 PUSH1 0x40 MLOAD SWAP1 POP SWAP1 JUMP JUMPDEST PUSH0 DUP1 REVERT JUMPDEST PUSH0 DUP1 REVERT JUMPDEST PUSH0 DUP2 SWAP1 POP SWAP2 SWAP1 POP JUMP JUMPDEST PUSH2 0x3DC DUP2 PUSH2 0x3CA JUMP JUMPDEST DUP2 EQ PUSH2 0x3E6 JUMPI PUSH0 DUP1 REVERT JUMPDEST POP JUMP JUMPDEST PUSH0 DUP2 CALLDATALOAD SWAP1 POP PUSH2 0x3F7 DUP2 PUSH2 0x3D3 JUMP JUMPDEST SWAP3 SWAP2 POP POP JUMP JUMPDEST PUSH0 PUSH1 0x20 DUP3 DUP5 SUB SLT ISZERO PUSH2 0x412 JUMPI PUSH2 0x411 PUSH2 0x3C2 JUMP JUMPDEST JUMPDEST PUSH0 PUSH2 0x41F DUP5 DUP3 DUP6 ADD PUSH2 0x3E9 JUMP JUMPDEST SWAP2 POP POP SWAP3 SWAP2 POP POP JUMP JUMPDEST PUSH0 DUP2 MLOAD SWAP1 POP SWAP2 SWAP1 POP JUMP JUMPDEST PUSH0 DUP3 DUP3 MSTORE PUSH1 0x20 DUP3 ADD SWAP1 POP SWAP3 SWAP2 POP POP JUMP JUMPDEST DUP3 DUP2 DUP4 MCOPY PUSH0 DUP4 DUP4 ADD MSTORE POP POP POP JUMP JUMPDEST PUSH0 PUSH1 0x1F NOT PUSH1 0x1F DUP4 ADD AND SWAP1 POP SWAP2 SWAP1 POP JUMP JUMPDEST PUSH0 PUSH2 0x46A DUP3 PUSH2 0x428 JUMP JUMPDEST PUSH2 0x474 DUP2 DUP6 PUSH2 0x432 JUMP JUMPDEST SWAP4 POP PUSH2 0x484 DUP2 DUP6 PUSH1 0x20 DUP7 ADD PUSH2 0x442 JUMP JUMPDEST PUSH2 0x48D DUP2 PUSH2 0x450 JUMP JUMPDEST DUP5 ADD SWAP2 POP POP SWAP3 SWAP2 POP POP JUMP JUMPDEST PUSH2 0x4A1 DUP2 PUSH2 0x3CA JUMP JUMPDEST DUP3 MSTORE POP POP JUMP JUMPDEST PUSH0 PUSH1 0xC0 DUP3 ADD SWAP1 POP DUP2 DUP2 SUB PUSH0 DUP4 ADD MSTORE PUSH2 0x4BF DUP2 DUP10 PUSH2 0x460 JUMP JUMPDEST SWAP1 POP PUSH2 0x4CE PUSH1 0x20 DUP4 ADD DUP9 PUSH2 0x498 JUMP JUMPDEST PUSH2 0x4DB PUSH1 0x40 DUP4 ADD DUP8 PUSH2 0x498 JUMP JUMPDEST PUSH2 0x4E8 PUSH1 0x60 DUP4 ADD DUP7 PUSH2 0x498 JUMP JUMPDEST PUSH2 0x4F5 PUSH1 0x80 DUP4 ADD DUP6 PUSH2 0x498 JUMP JUMPDEST PUSH2 0x502 PUSH1 0xA0 DUP4 ADD DUP5 PUSH2 0x498 JUMP JUMPDEST SWAP8 SWAP7 POP POP POP POP POP POP POP JUMP JUMPDEST PUSH0 PUSH1 0x20 DUP3 ADD SWAP1 POP PUSH2 0x520 PUSH0 DUP4 ADD DUP5 PUSH2 0x498 JUMP JUMPDEST SWAP3 SWAP2 POP POP JUMP JUMPDEST PUSH0 DUP1 REVERT JUMPDEST PUSH0 DUP1 REVERT JUMPDEST PUSH32 0x4E487B7100000000000000000000000000000000000000000000000000000000 PUSH0 MSTORE PUSH1 0x41 PUSH1 0x4 MSTORE PUSH1 0x24 PUSH0 REVERT JUMPDEST PUSH2 0x564 DUP3 PUSH2 0x450 JUMP JUMPDEST DUP2 ADD DUP2 DUP2 LT PUSH8 0xFFFFFFFFFFFFFFFF DUP3 GT OR ISZERO PUSH2 0x583 JUMPI PUSH2 0x582 PUSH2 0x52E JUMP JUMPDEST JUMPDEST DUP1 PUSH1 0x40 MSTORE POP POP POP JUMP JUMPDEST PUSH0 PUSH2 0x595 PUSH2 0x3B9 JUMP JUMPDEST SWAP1 POP PUSH2 0x5A1 DUP3 DUP3 PUSH2 0x55B JUMP JUMPDEST SWAP2 SWAP1 POP JUMP JUMPDEST PUSH0 PUSH8 0xFFFFFFFFFFFFFFFF DUP3 GT ISZERO PUSH2 0x5C0 JUMPI PUSH2 0x5BF PUSH2 0x52E JUMP JUMPDEST JUMPDEST PUSH2 0x5C9 DUP3 PUSH2 0x450 JUMP JUMPDEST SWAP1 POP PUSH1 0x20 DUP2 ADD SWAP1 POP SWAP2 SWAP1 POP JUMP JUMPDEST DUP3 DUP2 DUP4 CALLDATACOPY PUSH0 DUP4 DUP4 ADD MSTORE POP POP POP JUMP JUMPDEST PUSH0 PUSH2 0x5F6 PUSH2 0x5F1 DUP5 PUSH2 0x5A6 JUMP JUMPDEST PUSH2 0x58C JUMP JUMPDEST SWAP1 POP DUP3 DUP2 MSTORE PUSH1 0x20 DUP2 ADD DUP5 DUP5 DUP5 ADD GT ISZERO PUSH2 0x612 JUMPI PUSH2 0x611 PUSH2 0x52A JUMP JUMPDEST JUMPDEST PUSH2 0x61D DUP5 DUP3 DUP6 PUSH2 0x5D6 JUMP JUMPDEST POP SWAP4 SWAP3 POP POP POP JUMP JUMPDEST PUSH0 DUP3 PUSH1 0x1F DUP4 ADD SLT PUSH2 0x639 JUMPI PUSH2 0x638 PUSH2 0x526 JUMP JUMPDEST JUMPDEST DUP2 CALLDATALOAD PUSH2 0x649 DUP5 DUP3 PUSH1 0x20 DUP7 ADD PUSH2 0x5E4 JUMP JUMPDEST SWAP2 POP POP SWAP3 SWAP2 POP POP JUMP JUMPDEST PUSH0 DUP1 PUSH0 DUP1 PUSH0 DUP1 PUSH1 0xC0 DUP8 DUP10 SUB SLT ISZERO PUSH2 0x66C JUMPI PUSH2 0x66B PUSH2 0x3C2 JUMP JUMPDEST JUMPDEST PUSH0 DUP8 ADD CALLDATALOAD PUSH8 0xFFFFFFFFFFFFFFFF DUP2 GT ISZERO PUSH2 0x689 JUMPI PUSH2 0x688 PUSH2 0x3C6 JUMP JUMPDEST JUMPDEST PUSH2 0x695 DUP10 DUP3 DUP11 ADD PUSH2 0x625 JUMP JUMPDEST SWAP7 POP POP PUSH1 0x20 PUSH2 0x6A6 DUP10 DUP3 DUP11 ADD PUSH2 0x3E9 JUMP JUMPDEST SWAP6 POP POP PUSH1 0x40 PUSH2 0x6B7 DUP10 DUP3 DUP11 ADD PUSH2 0x3E9 JUMP JUMPDEST SWAP5 POP POP PUSH1 0x60 PUSH2 0x6C8 DUP10 DUP3 DUP11 ADD PUSH2 0x3E9 JUMP JUMPDEST SWAP4 POP POP PUSH1 0x80 PUSH2 0x6D9 DUP10 DUP3 DUP11 ADD PUSH2 0x3E9 JUMP JUMPDEST SWAP3 POP POP PUSH1 0xA0 PUSH2 0x6EA DUP10 DUP3 DUP11 ADD PUSH2 0x3E9 JUMP JUMPDEST SWAP2 POP POP SWAP3 SWAP6 POP SWAP3 SWAP6 POP SWAP3 SWAP6 JUMP JUMPDEST PUSH32 0x496E76616C6964204578616D2049440000000000000000000000000000000000 PUSH0 DUP3 ADD MSTORE POP JUMP JUMPDEST PUSH0 PUSH2 0x72B PUSH1 0xF DUP4 PUSH2 0x432 JUMP JUMPDEST SWAP2 POP PUSH2 0x736 DUP3 PUSH2 0x6F7 JUMP JUMPDEST PUSH1 0x20 DUP3 ADD SWAP1 POP SWAP2 SWAP1 POP JUMP JUMPDEST PUSH0 PUSH1 0x20 DUP3 ADD SWAP1 POP DUP2 DUP2 SUB PUSH0 DUP4 ADD MSTORE PUSH2 0x758 DUP2 PUSH2 0x71F JUMP JUMPDEST SWAP1 POP SWAP2 SWAP1 POP JUMP JUMPDEST PUSH32 0x4E487B7100000000000000000000000000000000000000000000000000000000 PUSH0 MSTORE PUSH1 0x22 PUSH1 0x4 MSTORE PUSH1 0x24 PUSH0 REVERT JUMPDEST PUSH0 PUSH1 0x2 DUP3 DIV SWAP1 POP PUSH1 0x1 DUP3 AND DUP1 PUSH2 0x7A3 JUMPI PUSH1 0x7F DUP3 AND SWAP2 POP JUMPDEST PUSH1 0x20 DUP3 LT DUP2 SUB PUSH2 0x7B6 JUMPI PUSH2 0x7B5 PUSH2 0x75F JUMP JUMPDEST JUMPDEST POP SWAP2 SWAP1 POP JUMP JUMPDEST PUSH0 DUP2 SWAP1 POP DUP2 PUSH0 MSTORE PUSH1 0x20 PUSH0 KECCAK256 SWAP1 POP SWAP2 SWAP1 POP JUMP JUMPDEST PUSH0 PUSH1 0x20 PUSH1 0x1F DUP4 ADD DIV SWAP1 POP SWAP2 SWAP1 POP JUMP JUMPDEST PUSH0 DUP3 DUP3 SHL SWAP1 POP SWAP3 SWAP2 POP POP JUMP JUMPDEST PUSH0 PUSH1 0x8 DUP4 MUL PUSH2 0x818 PUSH32 0xFFFFFFFFFFFFFFFFFFFFFFFFFFFFFFFFFFFFFFFFFFFFFFFFFFFFFFFFFFFFFFFF DUP3 PUSH2 0x7DD JUMP JUMPDEST PUSH2 0x822 DUP7 DUP4 PUSH2 0x7DD JUMP JUMPDEST SWAP6 POP DUP1 NOT DUP5 AND SWAP4 POP DUP1 DUP7 AND DUP5 OR SWAP3 POP POP POP SWAP4 SWAP3 POP POP POP JUMP JUMPDEST PUSH0 DUP2 SWAP1 POP SWAP2 SWAP1 POP JUMP JUMPDEST PUSH0 PUSH2 0x85D PUSH2 0x858 PUSH2 0x853 DUP5 PUSH2 0x3CA JUMP JUMPDEST PUSH2 0x83A JUMP JUMPDEST PUSH2 0x3CA JUMP JUMPDEST SWAP1 POP SWAP2 SWAP1 POP JUMP JUMPDEST PUSH0 DUP2 SWAP1 POP SWAP2 SWAP1 POP JUMP JUMPDEST PUSH2 0x876 DUP4 PUSH2 0x843 JUMP JUMPDEST PUSH2 0x88A PUSH2 0x882 DUP3 PUSH2 0x864 JUMP JUMPDEST DUP5 DUP5 SLOAD PUSH2 0x7E9 JUMP JUMPDEST DUP3 SSTORE POP POP POP POP JUMP JUMPDEST PUSH0 SWAP1 JUMP JUMPDEST PUSH2 0x89E PUSH2 0x892 JUMP JUMPDEST PUSH2 0x8A9 DUP2 DUP5 DUP5 PUSH2 0x86D JUMP JUMPDEST POP POP POP JUMP JUMPDEST JUMPDEST DUP2 DUP2 LT ISZERO PUSH2 0x8CC JUMPI PUSH2 0x8C1 PUSH0 DUP3 PUSH2 0x896 JUMP JUMPDEST PUSH1 0x1 DUP2 ADD SWAP1 POP PUSH2 0x8AF JUMP JUMPDEST POP POP JUMP JUMPDEST PUSH1 0x1F DUP3 GT ISZERO PUSH2 0x911 JUMPI PUSH2 0x8E2 DUP2 PUSH2 0x7BC JUMP JUMPDEST PUSH2 0x8EB DUP5 PUSH2 0x7CE JUMP JUMPDEST DUP2 ADD PUSH1 0x20 DUP6 LT ISZERO PUSH2 0x8FA JUMPI DUP2 SWAP1 POP JUMPDEST PUSH2 0x90E PUSH2 0x906 DUP6 PUSH2 0x7CE JUMP JUMPDEST DUP4 ADD DUP3 PUSH2 0x8AE JUMP JUMPDEST POP POP JUMPDEST POP POP POP JUMP JUMPDEST PUSH0 DUP3 DUP3 SHR SWAP1 POP SWAP3 SWAP2 POP POP JUMP JUMPDEST PUSH0 PUSH2 0x931 PUSH0 NOT DUP5 PUSH1 0x8 MUL PUSH2 0x916 JUMP JUMPDEST NOT DUP1 DUP4 AND SWAP2 POP POP SWAP3 SWAP2 POP POP JUMP JUMPDEST PUSH0 PUSH2 0x949 DUP4 DUP4 PUSH2 0x922 JUMP JUMPDEST SWAP2 POP DUP3 PUSH1 0x2 MUL DUP3 OR SWAP1 POP SWAP3 SWAP2 POP POP JUMP JUMPDEST PUSH2 0x962 DUP3 PUSH2 0x428 JUMP JUMPDEST PUSH8 0xFFFFFFFFFFFFFFFF DUP2 GT ISZERO PUSH2 0x97B JUMPI PUSH2 0x97A PUSH2 0x52E JUMP JUMPDEST JUMPDEST PUSH2 0x985 DUP3 SLOAD PUSH2 0x78C JUMP JUMPDEST PUSH2 0x990 DUP3 DUP3 DUP6 PUSH2 0x8D0 JUMP JUMPDEST PUSH0 PUSH1 0x20 SWAP1 POP PUSH1 0x1F DUP4 GT PUSH1 0x1 DUP2 EQ PUSH2 0x9C1 JUMPI PUSH0 DUP5 ISZERO PUSH2 0x9AF JUMPI DUP3 DUP8 ADD MLOAD SWAP1 POP JUMPDEST PUSH2 0x9B9 DUP6 DUP3 PUSH2 0x93E JUMP JUMPDEST DUP7 SSTORE POP PUSH2 0xA20 JUMP JUMPDEST PUSH1 0x1F NOT DUP5 AND PUSH2 0x9CF DUP7 PUSH2 0x7BC JUMP JUMPDEST PUSH0 JUMPDEST DUP3 DUP2 LT ISZERO PUSH2 0x9F6 JUMPI DUP5 DUP10 ADD MLOAD DUP3 SSTORE PUSH1 0x1 DUP3 ADD SWAP2 POP PUSH1 0x20 DUP6 ADD SWAP5 POP PUSH1 0x20 DUP2 ADD SWAP1 POP PUSH2 0x9D1 JUMP JUMPDEST DUP7 DUP4 LT ISZERO PUSH2 0xA13 JUMPI DUP5 DUP10 ADD MLOAD PUSH2 0xA0F PUSH1 0x1F DUP10 AND DUP3 PUSH2 0x922 JUMP JUMPDEST DUP4 SSTORE POP JUMPDEST PUSH1 0x1 PUSH1 0x2 DUP9 MUL ADD DUP9 SSTORE POP POP POP JUMPDEST POP POP POP POP POP POP JUMP JUMPDEST PUSH32 0x4E487B7100000000000000000000000000000000000000000000000000000000 PUSH0 MSTORE PUSH1 0x11 PUSH1 0x4 MSTORE PUSH1 0x24 PUSH0 REVERT JUMPDEST PUSH0 PUSH2 0xA5F DUP3 PUSH2 0x3CA JUMP JUMPDEST SWAP2 POP PUSH32 0xFFFFFFFFFFFFFFFFFFFFFFFFFFFFFFFFFFFFFFFFFFFFFFFFFFFFFFFFFFFFFFFF DUP3 SUB PUSH2 0xA91 JUMPI PUSH2 0xA90 PUSH2 0xA28 JUMP JUMPDEST JUMPDEST PUSH1 0x1 DUP3 ADD SWAP1 POP SWAP2 SWAP1 POP JUMP INVALID LOG2 PUSH5 0x6970667358 0x22 SLT KECCAK256 SWAP2 PUSH22 0xB93A7FAA754A50FB0040FE1E68215D510058F8C1FB9D 0xCB 0xD1 0xEE SLT 0xE6 PUSH12 0xA9064736F6C634300081A00 CALLER "
				},
				"gasEstimates": {
					"creation": {
						"codeDepositCost": "554000",
						"executionCost": "585",
						"totalCost": "554585"
					},
					"external": {
						"createExam(string,uint256,uint256,uint256,uint256,uint256)": "infinite",
						"examCount()": "2425",
						"exams(uint256)": "infinite",
						"getExamDetails(uint256)": "infinite"
					}
				},
				"methodIdentifiers": {
					"createExam(string,uint256,uint256,uint256,uint256,uint256)": "e465e355",
					"examCount()": "0dfb1dbf",
					"exams(uint256)": "4198cb3f",
					"getExamDetails(uint256)": "04a7e007"
				}
			},
			"storageLayout": {
				"storage": [
					{
						"astId": 19,
						"contract": "Exam_Guard/ExamContract.sol:ExamContract",
						"label": "exams",
						"offset": 0,
						"slot": "0",
						"type": "t_mapping(t_uint256,t_struct(Exam)14_storage)"
					},
					{
						"astId": 21,
						"contract": "Exam_Guard/ExamContract.sol:ExamContract",
						"label": "examCount",
						"offset": 0,
						"slot": "1",
						"type": "t_uint256"
					}
				],
				"types": {
					"t_mapping(t_uint256,t_struct(Exam)14_storage)": {
						"encoding": "mapping",
						"key": "t_uint256",
						"label": "mapping(uint256 => struct ExamContract.Exam)",
						"numberOfBytes": "32",
						"value": "t_struct(Exam)14_storage"
					},
					"t_string_storage": {
						"encoding": "bytes",
						"label": "string",
						"numberOfBytes": "32"
					},
					"t_struct(Exam)14_storage": {
						"encoding": "inplace",
						"label": "struct ExamContract.Exam",
						"members": [
							{
								"astId": 3,
								"contract": "Exam_Guard/ExamContract.sol:ExamContract",
								"label": "examName",
								"offset": 0,
								"slot": "0",
								"type": "t_string_storage"
							},
							{
								"astId": 5,
								"contract": "Exam_Guard/ExamContract.sol:ExamContract",
								"label": "startTime",
								"offset": 0,
								"slot": "1",
								"type": "t_uint256"
							},
							{
								"astId": 7,
								"contract": "Exam_Guard/ExamContract.sol:ExamContract",
								"label": "endTime",
								"offset": 0,
								"slot": "2",
								"type": "t_uint256"
							},
							{
								"astId": 9,
								"contract": "Exam_Guard/ExamContract.sol:ExamContract",
								"label": "duration",
								"offset": 0,
								"slot": "3",
								"type": "t_uint256"
							},
							{
								"astId": 11,
								"contract": "Exam_Guard/ExamContract.sol:ExamContract",
								"label": "totalMarks",
								"offset": 0,
								"slot": "4",
								"type": "t_uint256"
							},
							{
								"astId": 13,
								"contract": "Exam_Guard/ExamContract.sol:ExamContract",
								"label": "totalQuestions",
								"offset": 0,
								"slot": "5",
								"type": "t_uint256"
							}
						],
						"numberOfBytes": "192"
					},
					"t_uint256": {
						"encoding": "inplace",
						"label": "uint256",
						"numberOfBytes": "32"
					}
				}
			},
			"userdoc": {
				"kind": "user",
				"methods": {},
				"version": 1
			}
		}
	}
}